:100000000C943A010C9457010C9457010C9457012D
:100010000C9457010C9457010C9457010C94570100
:100020000C9457010C9457010C946A040C94C80367
:100030000C9457010C9457010C9457010C945701E0
:100040000C9457010C9457010C9457010C945701D0
:100050000C9457010C9457010C9457010C945901BE
:100060000C9457010C949F0A0C946B0A0C94570142
:100070000C9457010C9457010C9457010C945701A0
:100080000C9457010C9457010C9457010C94570190
:100090000C94B4080C9457010C9457010C9457011C
:1000A0000C9457010C9457010C94570126052A050E
:1000B0002E053205530553055305380553055305E1
:1000C0003E0553055305490577057B057F058305E7
:1000D0009A059A059A0589059A059A058F059A0544
:1000E0009A059505C206C406C606CF06E606E606CC
:1000F000E606D806E606E606E106E606E606E406B5
:10010000084AD73B3BCE016E84BCBFFDC12F3D6C7E
:1001100074319ABD56833DDA3D00C77F11BED9E4E4
:10012000BB4C3E916BAAAABE000000803F6E616E80
:1001300000696E6600120100020200004041234186
:100140008000010102000112010002000000404194
:1001500023418000010102000141726475696E6FE4
:100160002059756E0055534220494F20424F41524D
:1001700044000403090400C1808100407A10F35A4E
:1001800000A0724E18090010A5D4E80000E87648D7
:10019000170000E40B54020000CA9A3B000000E183
:1001A000F505000080969800000040420F00000016
:1001B000A08601000000102700000000E8030000F6
:1001C00000006400000000000A00000000000100C0
:1001D000000000002C76D888DC674F0823DFC1DFE1
:1001E000AE59E1B1B796E5E3E453C63AE6519976E4
:1001F00096E8E6C28426EB898C9B62ED407C6FFC1E
:10020000EFBC9C9F40F2BAA56FA5F490055A2AF75F
:100210005C936B6CF9676DC11BFCE0E40D47FEF568
:1002200020E6B500D0ED902E0300943577050080D0
:10023000841E080000204E0A000000C80C3333332F
:10024000330F986E12831141EF8D2114893BE655CF
:1002500016CFFEE6DB18D1844B381BF77C1D901DB2
:10026000A4BBE424203284725E228100C9F124EC14
:10027000A1E53D2711241FBECFEFDAE0DEBFCDBFE1
:1002800012E0A0E0B1E0E4E7FBE302C005900D92CC
:10029000A234B107D9F713E0A2E4B2E001C01D9285
:1002A000A73DB107E1F70E9423180C94B81D0C94E8
:1002B00000001F920F920FB60F9211242F933F93BD
:1002C0004F935F936F937F938F939F93AF93EF932E
:1002D000FF93209142023091430240914402509199
:1002E00045026091460270914702809148029091C8
:1002F0004902F0915202E3E0EF0FED3710F4A1E074
:1003000003C0E6E8EF0FA2E00E943719E093520223
:10031000209342023093430240934402509345029B
:10032000609346027093470280934802909349027B
:1003300020914A0230914B0240914C0250914D0263
:1003400060914E0270914F02809150029091510243
:10035000A1E00E94371920934A0230934B02409348
:100360004C0250934D0260934E0270934F02809363
:10037000500290935102FF91EF91AF919F918F9115
:100380007F916F915F914F913F912F910F900FBE91
:100390000F901F901895EFB7F8942091420230917A
:1003A000430240914402509145026091460270918F
:1003B00047028091480290914902EFBF0895AF92A1
:1003C000BF92CF92DF92EF92FF920F931F93EFB7FE
:1003D000F89420914A0230914B0240914C02509186
:1003E0004D0260914E0270914F02809150029091A7
:1003F0005102A6B4A89B03C0A1E00E943719EFBF29
:1004000008E00E9415191A2D110F110BB12EC12EE3
:10041000D12EE12EF12E012F0E942E1902E00E9412
:1004200015191F910F91FF90EF90DF90CF90BF9023
:10043000AF9008952F923F924F925F926F927F926A
:100440008F929F92AF92BF92CF92DF92EF92FF92E4
:100450000F931F93CF93DF9319012A013B018C0166
:100460000E94DF01C22FD32F9101A201B301C80165
:10047000A0E00E944319C1F00E94DF0149018C1ADB
:100480009D0A88EE881683E0980674F39101A20114
:10049000B301C801AFEF0E94371919012A013B01CE
:1004A0008C01C851DC4FE0CFDF91CF911F910F91AC
:1004B000FF90EF90DF90CF90BF90AF909F908F9084
:1004C0007F906F905F904F903F902F9008958F9204
:1004D0009F92AF92BF92CF92DF92EF92FF920F93D3
:1004E000CF93DF93AFEF0E943719A0E00E9443192A
:1004F00079F002E00E941519AEEF0E9437195A01F7
:100500006B017C01C901D501E601F7010197F1F703
:10051000DF91CF910F91FF90EF90DF90CF90BF9040
:10052000AF909F908F900895AF92BF92CF92DF923D
:10053000EF92FF920F931F93CF93DF93CDB7DEB768
:1005400062970FB6F894DEBF0FBECDBF6C01B90144
:100550005A01298B7A8B0E94FB059701A8016989B2
:100560007A89C5010E94F51A2AED3BE34FE952E46E
:100570000E94161A20E030E040E851E40E94C01BBF
:100580000E94831A29833A834B835C836D837E8325
:100590008F839887D6011196EC911197EE0FFF0B80
:1005A000EE56FE4F0190F081E02D12961C91808155
:1005B0008123B9F529813A814B815C816D817E81EE
:1005C0008F819885AFEF0E94371929833A834B8337
:1005D0005C836D837E838F839887A0E00E9443199C
:1005E00031F720E030E040E050E060E070E080E093
:1005F00090E06FC029813A814B815C816D817E8161
:100600008F819885AFEF0E94371929833A834B83F6
:100610005C836D837E838F839887A0E00E9443195B
:1006200001F38081812331F719861A861B861C8687
:100630001D861E861F86188A8081812361F5298187
:100640003A814B815C816D817E818F819885AFEF8E
:100650000E94371929833A834B835C836D837E83A1
:100660008F839887A0E00E94431909F4BACF2985A7
:100670003A854B855C856D857E858F859889A1E05F
:100680000E94371929873A874B875C876D877E8759
:100690008F87988BD1CF29853A854B855C856D8571
:1006A0007E858F8598890E94F51A28E33BE24CE805
:1006B00052E40E94C01B20E030E040E851E40E9478
:1006C000501920E030E040E85DE30E94C01B0E942A
:1006D000831A62960FB6F894DEBF0FBECDBFDF91CE
:1006E000CF911F910F91FF90EF90DF90CF90BF902F
:1006F000AF900895CF93DF93EA010E942706FE0191
:1007000038979F2F990F990B9F01492F592F692FC8
:10071000792F892FDF91CF910C946702CF93DF93CC
:1007200000D0CDB7DEB75A8349830E94270649819E
:10073000242F3A81932F990F990B492F592F692F05
:10074000792F892F0F900F90DF91CF910C941A027F
:100750001092C80281E08093D70080EA8093D8008D
:1007600082E189BD09B400FEFDCF21E030E040E028
:1007700050E060E070E080E090E00E941A0280E9C2
:100780008093D8008CE08093E2001092E0000895FE
:100790001F920F920FB60F9211240F931F932F9356
:1007A0003F934F935F936F937F938F939F93AF93F9
:1007B000BF93EF93FF93CF93DF93CDB7DEB7289727
:1007C000DEBFCDBF1092E9008091E800FE013196B6
:1007D0009E01275F3F4F8F01E217F30721F08091C1
:1007E000F1008193F9CF82EF8093E800898187FF40
:1007F00005C08091E80080FFFCCF03C08EEF80939E
:10080000E8000E94B40C8981982F907691F52A8196
:100810002630D1F02CF4222349F0253061F034C089
:100820002830B1F00CF12930B9F02EC01092F1004F
:100830001092F10029C08091E80080FFFCCF8B81ED
:1008400080688093E30020C0C8010E9461071CC03B
:1008500081E08093F10018C0837031F40E94F406A7
:100860008B818093C80210C083E090E00E94A40CAA
:100870000BC08F8198850E94070C2D813E81232B10
:1008800099F7C8010E94B8040E94AF0C892B21F08F
:1008900081E28093EB0003C08EEF8093E8002896FE
:1008A0000FB6F894DEBF0FBECDBFDF91CF91FF91A1
:1008B000EF91BF91AF919F918F917F916F915F91D8
:1008C0004F913F912F911F910F910F900FBE0F905D
:1008D0001F9018951F920F920FB60F9211242F930D
:1008E0003F934F935F936F937F938F939F93AF93B8
:1008F000BF93CF93EF93FF93C091E1001092E1007B
:10090000C3FF0AC042E360E080E00E94EA06109262
:10091000C80288E08093F000C2FF18C083E00E9404
:10092000D50A82E08093E9000E94F113C091F200A1
:100930000E94F413CC2351F082E00E94310B682F07
:100940008DE493E00E945614C150F4CFFF91EF91D3
:10095000CF91BF91AF919F918F917F916F915F9157
:100960004F913F912F910F900FBE0F901F901895B0
:10097000CF93DF93EC010E94B40C8881813209F09F
:100980003DC08981803241F467E070E080E091E011
:10099000DF91CF910C948E0C823281F58A81809305
:1009A00005010E94F20B8091000190910101803BB2
:1009B000944051F58091050180FD12C087E797E7CB
:1009C00090930108809300082BE088E190E00FB637
:1009D000F894A895809360000FBE2093600014C027
:1009E00088E10FB6F89480936000109260000FBE0B
:1009F000A895109201081092000806C084E090E0CB
:100A0000DF91CF910C94A40CDF91CF910895DC017C
:100A100013968D919C911497029709F04AC01596F0
:100A20008D919C911697029709F443C04C915527DC
:100A300047FD5095652F752F415051094E30510596
:100A400090F54A5A5F4FFA010C940F1984B58068EB
:100A500084BD29C085B5806285BD25C08091800098
:100A6000806803C0809180008062809380001BC0FA
:100A70008091900080688093900015C08091C000A4
:100A800080688093C0008091C0008B7F8093C000FD
:100A90000AC08091C20088608093C2008091C20029
:100AA0008B7F8093C20082E090E016969C938E9399
:100AB00015970895DC0113968D919C9114970297D8
:100AC000E9F515968D919C911697892BB9F14C916A
:100AD000552747FD5095652F752F415051094E30D0
:100AE000510540F54C595F4FFA010C940F1984B52C
:100AF0008F7784BD1FC085B58F7D85BD1BC080915C
:100B000080008F7703C0809180008F7D809380006C
:100B100011C0809190008F77809390000BC08091DE
:100B2000C0008F778093C00005C08091C200877F8E
:100B30008093C20016961C921E9215970895EF920C
:100B4000FF920F931F93CF93DF93EC018B819C81D6
:100B500001970297E0F58D819E81892BC1F58981EE
:100B6000880F990BFC01E255FE4F00811181FC01B9
:100B7000E056FE4FE080F18061110EC00E94F1133B
:100B8000F80190812A81209592239083F70190812A
:100B90002A812095922314C0613021F40E94F11320
:100BA000F8010BC0623099F40E94F113F8019081B2
:100BB0002A81209592239083F70190812A81922B9C
:100BC00090830E94F41381E090E09E838D83DF91F7
:100BD000CF911F910F91FF90EF900895FC018381B9
:100BE00094810197029730F485819681892B11F0C9
:100BF000168215820895CF93DF93EC012B813C81FF
:100C0000C90101970297F8F48D819E812230310548
:100C100039F48230910521F4CE010E945A0506C0B4
:100C2000892B21F460E0CE010E949F05E981EE0F3F
:100C3000FF0BEE56FE4F0190F081E02D90818A81EE
:100C4000982381E009F080E0DF91CF910895FF9231
:100C50000F931F93CF93DF93EC01F62E2B813C81F2
:100C6000C9010197029760F58D819E81223031057F
:100C700039F48230910521F4CE010E945A0506C054
:100C8000892B21F461E0CE010E949F05E981EE0FDE
:100C9000FF0BE056FE4F008111810E94F1132A8163
:100CA000F8019081F11003C02095922301C0922B8E
:100CB0009083DF91CF911F910F91FF900C94F413CB
:100CC000DF91CF911F910F91FF900895FC018381D7
:100CD0009481039769F580917B00918193FB222792
:100CE00020F930E045E0220F331F4A95E1F78F7D70
:100CF000822B80937B0081818770806480937C004D
:100D000080917A00806480937A0080917A0086FDD9
:100D1000FCCF2091780080917900992787FD9095EC
:100D2000982F8827332727FD3095822B932B089502
:100D300080E090E008951F93CF93DF93EC01162F8E
:100D40008B819C81029709F041C08D819E81009723
:100D500029F461E0CE010E949F0505C0019719F4B6
:100D6000CE010E9407058881992787FD9095A92FBC
:100D7000B92FFC013197EE30F10540F5EE58FF4FE9
:100D80000C940F1917BD22C018BD20C0612F772702
:100D900067FD7095709389006093880017C0612F7C
:100DA000772767FD709570938B0060938A000EC063
:100DB000612F772767FD7095709399006093980075
:100DC00005C01093CF0002C01093D200DF91CF91E5
:100DD0001F9108958093E90081E08093EB00609378
:100DE000EC004093ED000895E6E7F1E081E091E04A
:100DF00026E33196843059F034918093E900909342
:100E0000EB003093EC002093ED008F5FF2CF8EE784
:100E10008093EA001092EA0008950F931F93CF93F6
:100E2000DF93EC01062F862F880F8E5F0E947C0CCB
:100E300083E00E947C0C10E010178CF4FE01E10F9F
:100E4000F11D17FDFA9584910E947C0C80E00E94B0
:100E50007C0C0E94AF0C892B11F41F5FEDCFDF914A
:100E6000CF911F910F910895CF93DF93CDB7DEB748
:100E700029970FB6F894DEBF0FBECDBF29E0E8E298
:100E8000F2E0DE01119601900D922A95E1F70E94A1
:100E9000070C49E050E0BE016F5F7F4F80E00E9489
:100EA000120C42E450E066EE71E080E00E94120C09
:100EB00029960FB6F894DEBF0FBECDBFDF91CF915C
:100EC0000895CF93DF93EC012B818E819F81223097
:100ED00021F4DF91CF910C9434070E94070C2B81F1
:100EE000213069F48E819F81089711F42093530279
:100EF0008091530281111CC0C7E4D1E01EC0233091
:100F0000F1F48A818823B9F0823021F46CE085E61F
:100F100091E005C0813039F46BE089E591E0DF9123
:100F2000CF910C940D0783E090E00E94A40C07C0C1
:100F3000C5E3D1E002C0C2E7D1E0209731F483E0FD
:100F400090E00E94A40CC0E0D0E00E94AF0C892B7E
:100F500059F4FE014491552747FD5095BE0180E8A4
:100F6000DF91CF910C94120CDF91CF9108951092E4
:100F7000C10281E08093BF021092BE0262E08EE364
:100F800091E00E94270662E085E491E00E94270636
:100F9000E9EBF0E080818E7F808380818D7F80838C
:100FA00088E48093B80085E48093BC000895880F9E
:100FB000990B8093BA00089541320CF047C090918C
:100FC000C1029111FCCF91E09093C1022093BF0226
:100FD0002FEF2093540210929902240F209398022D
:100FE0009093C0029091C002282F220F330B922BB6
:100FF0009093C0028091BE02813041F41092BE02F3
:101000008091C0028093BB0085EC01C085EE809387
:10101000BC008091C1028130E1F380919902841774
:1010200014F44091990280E0841774F4282F332738
:1010300027FD3095FB01E20FF31FD901A656BD4FE6
:101040009C9190838F5FF0CF842F089580E0089566
:101050000F9341320CF046C09091C1029111FCCF28
:1010600092E09093C1020093BF029FEF90935402CD
:101070001092990240939802FB016AE972E0DB0149
:101080009A2F961B94171CF491919D93F9CF10926F
:10109000C0023091C002880F990B382B3093C002E8
:1010A0008091BE02813041F41092BE028091C00254
:1010B0008093BB0085EC01C085EE8093BC002223A9
:1010C00021F08091C1028230E1F38091540280913D
:1010D0005402803249F080915402803339F080917B
:1010E000540205C081E003C082E001C083E00F919B
:1010F000089561329CF42091C102243089F46093F8
:101100007602FC0188E792E0DC012A2F281B2617D3
:101110001CF421912D93F9CF80E0089581E008958A
:1011200082E008959093BB028093BA020895909351
:10113000BD028093BC020895882311F085EC01C0A4
:1011400085E88093BC00089585ED8093BC00809174
:10115000BC0084FDFCCF1092C102089585EC809301
:10116000BC001092C10208951F920F920FB60F9209
:1011700011242F933F934F935F936F937F938F939C
:101180009F93AF93BF93EF93FF938091B9009927FB
:1011900087FD9095887F99278036910509F4BAC01C
:1011A000BCF58832910509F471C0ACF48031910529
:1011B00009F469C03CF4009709F419C1089709F4CF
:1011C00062C019C18831910509F460C0809709F0A7
:1011D00012C180E272C08034910509F47FC05CF4D2
:1011E0008033910509F468C0C89709F004C188E309
:1011F00080935402C5C08035910509F461C08835DB
:10120000910509F470C08834910509F0F4C0F1C06B
:101210008839910509F4E1C0DCF48837910509F4B7
:1012200079C04CF48836910509F474C08037910573
:1012300009F470C0E0C08838910509F4CEC0803947
:10124000910509F46DC08038910509F0D4C068C0DB
:10125000803B910509F497C04CF4803A910509F45C
:1012600073C0883A910509F48EC0C5C0803C9105D1
:1012700009F4B7C0883C910509F4B3C0883B9105D7
:1012800009F496C0B8C08091C00212C09091990232
:10129000809198029817ACF5E091990281E08E0F49
:1012A00080939902FF27E7FDF095E656FD4F808178
:1012B0008093BB0085EC92C080E38093540299C078
:1012C000E091990281E08E0F809399028091BB009A
:1012D000FF27E7FDF095E656FD4F80839091990238
:1012E0008091980277C0E091990281E08E0F8093FF
:1012F00099028091BB00FF27E7FDF095E656FD4F70
:1013000080838091BF02811174C081E08093BE020E
:1013100084EA68C083E08093C10210925502CACF6C
:101320008091550280320CF058C0E091550281E066
:101330008E0F809355028091BB00FF27E7FDF0954B
:10134000EA5AFD4F8083B6CF80915502803244F433
:10135000E0915502FF27E7FDF095EA5AFD4F108214
:101360000E94A40860915502772767FD7095E0916F
:10137000BA02F091BB0286E592E0099510925502FF
:101380000E94AE0838C084E08093C10210927702B8
:1013900010927602E091BC02F091BD020995809115
:1013A0007602811105C081E0809376021092780266
:1013B000E091770281E08E0F80937702FF27E7FDAF
:1013C000F095E858FD4F80818093BB0090917702A3
:1013D0008091760298170CF46DCF85E88093BC005D
:1013E0000AC085EC8093BC001092C10204C0109228
:1013F00054020E94A408FF91EF91BF91AF919F9179
:101400008F917F916F915F914F913F912F910F90AD
:101410000FBE0F901F9018951092CD0087E6809315
:10142000CC00E8ECF0E080818D7F808388E18093C0
:10143000C900EAECF0E08081806C80831092CA02DF
:1014400010920C031092C90210920B03089589ECBC
:1014500092E00C94981489EC92E00E9498148823EE
:1014600021F089EC92E00C94841480E00895682FB8
:101470008BE093E00E945614E9ECF0E080818062FA
:101480008083E8ECF0E08081806480830895AF92EF
:10149000BF92CF92DF92EF92FF920F931F93CF9361
:1014A000DF93CDB7DEB72E970FB6F894DEBF0FBE31
:1014B000CDBF2E960FB6F894DEBF0FBECDBFDF9125
:1014C000CF911F910F91FF90EF90DF90CF90BF9041
:1014D000AF900C94370A1F920F920FB60F921124FF
:1014E0002F933F934F935F936F937F938F939F932C
:1014F000AF93BF93EF93FF938BE093E00E94981418
:10150000811106C08091C9008F7D8093C90006C0FB
:101510008BE093E00E9484148093CE00FF91EF91C2
:10152000BF91AF919F918F917F916F915F914F91FB
:101530003F912F910F900FBE0F901F9018951F9203
:101540000F920FB60F9211242F933F934F935F93F7
:101550006F937F938F939F93AF93BF93EF93FF937B
:101560008091C80082FD06C06091CE0089EC92E0B7
:101570000E945614FF91EF91BF91AF919F918F916F
:101580007F916F915F914F913F912F910F900FBE7F
:101590000F901F9018958091E8008570E1F390916D
:1015A000E80081E092FD80E008958093E900809159
:1015B000F20018161CF48AE38093E8000895CF9394
:1015C0008093E9000E94F1139091E800C091F2002D
:1015D0000E94F41380E48C1BCF910895FF920F9327
:1015E0001F93CF93DF93F82E8B01EA010E94B40C76
:1015F0008091C802811107C082E090E00E94A40C93
:1016000080E090E028C0F092E9000E94F113209160
:10161000F200332727FD30952C173D072CF4C0919D
:10162000F200DD27C7FDD095F80198012C0F3D1F72
:10163000E217F30721F09091F1009193F9CF2097F1
:1016400039F09091F200911103C09BE69093E8006D
:101650000E94F413CE01DF91CF911F910F91FF9063
:101660000895CF93DF931F92CDB7DEB7198241E083
:1016700050E0BE016F5F7F4F0E94EE0A89818D307E
:1016800009F48AE00F90DF91CF9108958F929F9295
:10169000AF92BF92CF92DF92EF92FF920F931F9380
:1016A000CF93DF93C82EEB017A010E94B40C809196
:1016B000C802882361F087018AEFB82E8C2D8072D2
:1016C000A82E9C2D9074992E9AE3892E19C081E042
:1016D00090E00E94A40C80E090E04EC08C2D0E940F
:1016E000DF0AD82E811110C0BA9489F321E030E0CE
:1016F00040E050E060E070E080E090E00E941A027C
:10170000101611065CF337C0282F332727FD3095BC
:10171000021713070CF4D02E0D191109D7FC1395DD
:10172000C092E9000E94F113AA2039F0DA949FEFE9
:10173000D916B1F01092F100F9CFFE019D2DC7FE30
:1017400007C0915058F024912093F1003196F9CFC1
:10175000915020F021912093F100FACFCD0DD11DB1
:101760009091E800E114F10419F491108092E800DE
:101770000E94F413C5CFC701DF91CF911F910F9144
:10178000FF90EF90DF90CF90BF90AF909F908F90A1
:101790000895CF93DF931F92CDB7DEB789838091F1
:1017A00005011816B4F441E050E0BE016F5F7F4FB1
:1017B00083E00E94460B89818A3081F48DE0898321
:1017C00041E050E0BE016F5F7F4F83E00E94460B17
:1017D00005C069818FE893E00E9456140F90DF9155
:1017E000CF9108958091050118160CF008958FE8A7
:1017F00093E00E949814882349F08FE893E00E94B8
:10180000841460E070E00E94C90BF1CF089510923B
:10181000E9001092C5021092C4029093C70280930F
:10182000C6020895AF92BF92CF92DF92EF92FF92DD
:101830000F931F93CF93DF9300D0CDB7DEB7D82E91
:10184000F42EE52E69837A830E94B40C1092E9008D
:101850000F2D1E2D6981A62E7A81B72E2EEFC22E56
:1018600001151105D1F16091C4027091C50220915A
:10187000C6023091C702621773077CF50E94CB0A3B
:10188000811107C082E090E00E94A40C80E090E00B
:1018900026C0F501D7FE02C0849101C080818093EB
:1018A000F1002091C4023091C5022F5F3F4F2F738A
:1018B0003327232B11F4C092E8002091C402309109
:1018C000C5022F5F3F4F3093C5022093C4020150E1
:1018D0001109FFEFAF1ABF0AC3CF8F2D9E2D0F90B6
:1018E0000F90DF91CF911F910F91FF90EF90DF90BC
:1018F000CF90BF90AF900895CF93DF931F92CDB755
:10190000DEB7898341E050E0BE016F5F7F4F80E02A
:101910000E94120C0F90DF91CF9108951092E90070
:101920002091E80022FFFCCFFC01680F791FE61729
:10193000F70721F08091F1008193F9CF8BEF80932D
:10194000E8008FEF9FEF08952091C2023091C3020B
:10195000232B21F49093C3028093C20208958091B7
:10196000C2029091C30208951092C3021092C20263
:101970000895DF92EF92FF920F931F93CF93DF931F
:101980001F92CDB7DEB789837B01D42E00E010E033
:1019900021E030E041E050E0BE016F5F7F4F88E61C
:1019A00090E00E9428088F3F21F086E090E00E949E
:1019B000A40C21E04D2DB70188E60E94DC07F82E2B
:1019C0008D1521F085E090E00E94A40C8F2D0F90E2
:1019D000DF91CF911F910F91FF90EF90DF900895CD
:1019E000FF920F931F93CF93DF9300D01F92CDB739
:1019F000DEB78B83F42E7A83698300E010E021E068
:101A000030E041E050E0BE016D5F7F4F88E690E03E
:101A10000E9428088F3F21F086E090E00E94A40CED
:101A20004F2D552747FD509501E010E021E030E0B3
:101A3000BE016F5F7F4F88E690E00E9428088F3FCD
:101A400021F086E090E00E94A40C0F900F900F9080
:101A5000DF91CF911F910F91FF9008950F931F93E6
:101A6000CF93DF9300D0CDB7DEB78983FB018081B0
:101A70008A8301E010E021E030E042E050E0BE0166
:101A80006F5F7F4F88E690E00E9428088F3F21F02B
:101A900086E090E00E94A40C0F900F90DF91CF9110
:101AA0001F910F910895CF93DF931F92CDB7DEB7AB
:101AB00041E050E0BE016F5F7F4F85E790E00E94FC
:101AC000B90C89810F90DF91CF910895CF93DF9367
:101AD0001F92CDB7DEB741E050E0BE016F5F7F4F90
:101AE0008BE690E00E94B90C89810F90DF91CF9135
:101AF0000895CF93DF931F92CDB7DEB78983BE01E0
:101B00006F5F7F4F8BE690E00E942E0D0F90DF916C
:101B1000CF910895CF93DF931F92CDB7DEB7877033
:101B20008983BE016F5F7F4F8AE190E00E942E0D96
:101B30000F90DF91CF910895CF93DF931F92CDB790
:101B4000DEB724E08202C00111248983BE016F5FE9
:101B50007F4F8BE190E00E942E0D0F90DF91CF918F
:101B60000895CF93DF931F92CDB7DEB728E08202AE
:101B7000C00111248983BE016F5F7F4F8CE190E02B
:101B80000E942E0D0F90DF91CF910895CF93DF9398
:101B9000EC01BC0180E090E00E94B90CBE016F5FD7
:101BA0007F4F81E090E00E94B90CBE016E5F7F4FD5
:101BB00082E090E0DF91CF910C94B90CCF93DF934A
:101BC0001F92CDB7DEB780E78983BE016F5F7F4F7D
:101BD0008BE190E00E942E0DBE016F5F7F4F8CE184
:101BE00090E00E942E0D0F90DF91CF910895CF933A
:101BF000DF931F92CDB7DEB780E78983BE016F5FA9
:101C00007F4F83E290E00E942E0D0F90DF91CF91E5
:101C1000089560E070E083E290E00C942E0DAF92A6
:101C2000BF92CF92DF92EF92FF920F931F93CF93C9
:101C3000DF93CDB7DEB72E970FB6F894DEBF0FBE99
:101C4000CDBF8C01A62EB42E4EE050E0BE016F5FDA
:101C50007F4F8BE390E00E94B90C89819A81998330
:101C60008A838B819C819B838C838D819E819D83C4
:101C70008E838F8198859F83888789859A859987A8
:101C80008A878B859C859B878C878D859E859D8784
:101C90008E876F817885882777FD8095982F0E94A1
:101CA000BA1A20E030EF41E456E40E94501920E0D7
:101CB00030E04AEA53E40E94161AF8016083718307
:101CC00082839383F1E0AF16E1F0FA155CF0A11086
:101CD00029C08DE2C82E83E2D82E8AEFE82E8BE34E
:101CE000F82E20C082E0A816A9F0E3E0AE121AC0D8
:101CF00090E9C92E91ECD92E99E7E92E9DE3F92EB2
:101D000011C03DE2C32E33E2D32E3AE7E32E3CE38B
:101D1000F32E08C020E9C22E21ECD22E29EFE22EAC
:101D20002CE3F22E69857A85882777FD8095982F98
:101D30000E94BA1AA70196010E94C01BF801608B8D
:101D4000718B828B938B6B857C85882777FD809543
:101D5000982F0E94BA1AA70196010E94C01BF80191
:101D6000648B758B868B978B6D857E85882777FD39
:101D70008095982F0E94BA1AA70196010E94C01B55
:101D8000F801608F718F828F938F6B2D772767FD9E
:101D900070956F5F7F4F882777FD8095982F0E9401
:101DA000BA1A6B017C0169817A81882777FD809559
:101DB000982F0E94BA1A20E036E646E856E40E94C0
:101DC000161AA70196010E94C01BF801648375834F
:101DD000868397836B817C81882777FD8095982FF8
:101DE0000E94BA1A20E036E646E856E40E94161A27
:101DF000A70196010E94C01BF80160877187828746
:101E000093876D817E81882777FD8095982F0E942A
:101E1000BA1A20E036E646E856E40E94161AA701F0
:101E200096010E94C01BF801648775878687978793
:101E30002E960FB6F894DEBF0FBECDBFDF91CF91C7
:101E40001F910F91FF90EF90DF90CF90BF90AF90D8
:101E50000895FC011082118212821382148215826D
:101E600016821782108611861286138640E050E093
:101E70006AE774E44487558766877787108A118AF2
:101E8000128A138A148A158A168A178A108E118E5E
:101E9000128E138E448F558F668F778F10A211A2EA
:101EA00012A213A214A215A216A217A210A611A67E
:101EB00012A613A644A755A766A777A708952F9241
:101EC0003F924F925F926F927F928F929F92AF92CA
:101ED000BF92CF92DF92EF92FF920F931F93CF9317
:101EE000DF93CDB7DEB7CC54D1090FB6F894DEBF7F
:101EF0000FBECDBF1C0149875A876B877C870DA316
:101F00001EA32FA338A7DC0114968D919D910D90EF
:101F1000BC91A02D89A39AA3ABA3BCA3D101189611
:101F20008D919D910D90BC91A02D21968CAF9DAF70
:101F3000AEAFBFAF219720E030E048EC52E469A19A
:101F40007AA18BA19CA10E94C01BF101208131814B
:101F5000428153810E9450196B017C0120E030E0E6
:101F600048EC52E421966CAD7DAD8EAD9FAD2197CE
:101F70000E94C01B9B01AC01C701B6010E944F1912
:101F800029966CAF7DAF8EAF9FAF2997D101589640
:101F90008D919D910D90BC91A02D8D839E83AF83DB
:101FA000B887D10194968D919D910D90BC91A02DF3
:101FB00089839A83AB83BC83D1015C968D919D917B
:101FC0000D90BC91A02D8D879E87AF87B88B20E0A8
:101FD00030E048EC52E4BC01CD010E94C01B6D8B87
:101FE0007E8B8F8B988FD10198968D919D910D90BE
:101FF000BC91A02D89A79AA7ABA7BCA720E030E091
:1020000048EC52E4BC01CD010E94C01B698F7A8F5D
:102010008B8F9C8FF10120893189428953896D8989
:102020007E898F89988D0E945019298D3A8D4B8D0C
:102030005C8D0E944F19698B7A8B8B8B9C8BD101A5
:1020400090968D919D910D90BC91A02D89AB9AABEE
:10205000ABABBCAB20E030E048EC52E4BC01CD01BE
:102060000E94C01B4B015C01D1019C968D919D91FA
:102070000D90BC91A02D25968CAF9DAFAEAFBFAF9C
:10208000259720E030E048EC52E4BC01CD010E94ED
:10209000C01B6B017C01F101248935894689578970
:1020A000C501B4010E945019A70196010E944F1961
:1020B0006DA77EA78FA798AB20E030E048EC52E4F4
:1020C0006D817E818F8198850E94C01BD1011C96F5
:1020D0002D913D914D915C911F970E9450192B01BC
:1020E0003C0120E030E048EC52E469817A818B8148
:1020F0009C810E94C01B9B01AC01C301B2010E94E4
:102100004F192B013C0120E030E048EC52E4698992
:102110007A898B899C890E94C01B9B01AC01C301F9
:10212000B2010E9450192B013C0120E030E048EC44
:1021300052E46DA57EA58FA598A90E94C01B9B01A6
:10214000AC01C301B2010E944F1920E030E040EA27
:1021500050E40E9450196D8F7E8F8F8F98A32D8928
:102160003E894F89588D6D817E818F8198850E942F
:102170005019A50194010E944F196D837E838F83AE
:10218000988720E030E048EC52E46D857E858F85AD
:1021900098890E9450196D877E878F87988B298D2B
:1021A0003A8D4B8D5C8D69817A818B819C810E94F7
:1021B0005019A70196010E944F196DAB7EAB8FABF2
:1021C00098AF29962CAD3DAD4EAD5FAD2997698591
:1021D0007A858B859C850E944F1969AF7AAF8BAF4A
:1021E0009CAF29A13AA14BA15CA16DA17EA18FA1B9
:1021F00098A50E944F196DA37EA38FA398A720E0F6
:1022000030E04AE754E46D8D7E8D8F8D98A10E9459
:10221000501969837A838B839C8320E030E04AE7FE
:1022200054E46D857E858F8598890E9450194B01F5
:102230005C012D813E814F81588569897A898B891E
:102240009C890E94C01B69877A878B879C87A50120
:10225000940169817A818B819C810E94C01B2985B0
:102260003A854B855C850E944F199B01AC0160E06B
:1022700070E080E89FE30E94161A6B017C01A501C3
:1022800094016D8D7E8D8F8D98A10E94C01B298534
:102290003A854B855C850E944F19A70196010E94E3
:1022A000C01B2D966CAF7DAF8EAF9FAF2D97298150
:1022B0003A814B815C8169897A898B899C890E94EA
:1022C000C01B2B013C0129893A894B895C896D8DA2
:1022D0007E8D8F8D98A10E94C01B9B01AC01C30114
:1022E000B2010E944F19A70196010E94C01B6D8B7D
:1022F0007E8B8F8B988FA50194016D817E818F815C
:1023000098850E94C01B2B013C012D813E814F818D
:1023100058856D857E858F8598890E94C01B9B019D
:10232000AC01C301B2010E944F19A70196010E949E
:10233000C01B698F7A8F8B8F9C8F29813A814B814B
:102340005C816D857E858F8598890E94C01B29855B
:102350003A854B855C850E944F19A70196010E9422
:10236000C01B2B013C01A50194016DA97EA98FA979
:1023700098AD0E94C01B4B015C012D813E814F81B5
:10238000588569A57AA58BA59CA50E94C01B9B01B9
:10239000AC01C501B4010E944F19A70196010E942A
:1023A000C01B69877A878B879C8729813A814B81FB
:1023B0005C8169A57AA58BA59CA50E94C01B4B01D9
:1023C0005C0129893A894B895C896DA97EA98FA90D
:1023D00098AD0E94C01B9B01AC01C501B4010E94D5
:1023E0004F19A70196010E94C01B69837A838B83D2
:1023F0009C8329AD3AAD4BAD5CAD2D966CAD7DADFA
:102400008EAD9FAD2D970E94C01B9B01AC012996FC
:102410006CAD7DAD8EAD9FAD29970E9450196B01BB
:102420007C012DA13EA14FA158A56D897E898F8980
:10243000988D0E94C01B9B01AC01C701B6010E9490
:102440005019F101608371838283938329AD3AAD82
:102450004BAD5CAD698D7A8D8B8D9C8D0E94C01BC0
:102460009B01AC0169A17AA18BA19CA10E9450198A
:102470006B017C012DA13EA14FA158A5C301B20162
:102480000E94C01B9B01AC01C701B6010E945019FC
:10249000D10114966D937D938D939C93179729ADDD
:1024A0003AAD4BAD5CAD69857A858B859C850E9484
:1024B000C01B9B01AC0121966CAD7DAD8EAD9FAD77
:1024C00021970E9450196B017C012DA13EA14FA1C3
:1024D00058A569817A818B819C810E94C01B9B01D8
:1024E000AC01C701B6010E945019F10160877187E4
:1024F000828793872D962CAD3DAD4EAD5FAD2D9768
:1025000060E070E080E89FE30E944F194B015C019E
:10251000A301920160E070E080E89FE30E944F1900
:102520006B017C0129813A814B815C816D857E85BF
:102530008F8598890E94C01B69A37AA38BA39CA353
:10254000A50194016D8D7E8D8F8D98A10E94C01B79
:102550002B013C012D893E894F89588D6D817E81EB
:102560008F8198850E94C01B9B01AC01C301B20101
:102570000E944F19D1011C966D937D938D939C936E
:102580001F97A501940169897A898B899C890E948A
:10259000C01B2B013C012D893E894F89588D6D85CB
:1025A0007E858F8598890E94C01B9B01AC01C30169
:1025B000B2010E944F19F101608B718B828B938B5A
:1025C000A50194016DA57EA58FA598A90E94C01BA9
:1025D0004B015C012D893E894F89588D69A97AA9E3
:1025E0008BA99CA90E94C01B9B01AC01C501B40131
:1025F0000E944F19D10154966D937D938D939C93B6
:102600005797A70196016D817E818F8198850E94E1
:10261000C01B4B015C01298D3A8D4B8D5C8D6D8DFE
:102620007E8D8F8D98A10E94C01B9B01AC01C501BE
:10263000B4010E944F19F101608F718F828F938FC7
:10264000A70196016D857E858F8598890E94C01BA4
:102650004B015C01298D3A8D4B8D5C8D69897A899E
:102660008B899C890E94C01B9B01AC01C501B401F0
:102670000E944F19D1015C966D937D938D939C932D
:102680005F97A701960169A97AA98BA99CA90E94C5
:10269000C01B6B017C01298D3A8D4B8D5C8D6DA526
:1026A0007EA58FA598A90E94C01B9B01AC01C70104
:1026B000B6010E944F19F10160A371A382A393A3F5
:1026C00029813A814B815C816D817E818F819885E2
:1026D0000E94C01B9B01AC016DA97EA98FA998AD7A
:1026E0000E944F196B017C0129853A854B855C85D9
:1026F0006D8D7E8D8F8D98A10E94C01B9B01AC01BA
:10270000C701B6010E944F19D10194966D937D9334
:102710008D939C93979729A13AA14BA15CA169A5A0
:102720007AA58BA59CA50E944F196B017C01298578
:102730003A854B855C8569897A898B899C890E9459
:10274000C01B9B01AC01C701B6010E944F19F101EA
:1027500060A771A782A793A72AE037ED43E25CE365
:1027600025966CAD7DAD8EAD9FAD25970E9450191D
:1027700029A13AA14BA15CA10E944F196B017C01D8
:1027800029853A854B855C856DA57EA58FA598A981
:102790000E94C01B9B01AC01C701B6010E944F19EA
:1027A000D1019C966D937D938D939C939F97C45B71
:1027B000DF4F0FB6F894DEBF0FBECDBFDF91CF91D4
:1027C0001F910F91FF90EF90DF90CF90BF90AF904F
:1027D0009F908F907F906F905F904F903F902F9041
:1027E00008958FB7F89408958FBF0895789484B5AD
:1027F000826084BD84B5816084BD85B5826085BDFD
:1028000085B5816085BDEEE6F0E0808181608083E2
:10281000E1E8F0E0108280818260808380818160C5
:102820008083E0E8F0E0808181608083E1EBF0E08C
:10283000808184608083E0EBF0E080818160808330
:10284000E1E9F0E080818260808380818160808323
:10285000E0E9F0E0808181608083E1ECF0E080815C
:1028600084608083808182608083808181608083B6
:10287000E3ECF0E0808181608083E0ECF0E0808137
:1028800082608083E2ECF0E0808181608083EAE70F
:10289000F0E0808184608083808182608083808199
:1028A000816080838081806880830895FC018081BD
:1028B0008F5F803411F0808301C010828081E80F27
:1028C000F11D87FDFA9562830895EF92FF920F93B1
:1028D0001F93CF93DF931F92CDB7DEB78C017B019F
:1028E000460F4E1549F0F70161917F01C8014983F8
:1028F0000E9456144981F5CF0F90DF91CF911F911F
:102900000F91FF90EF900895FC01818190818917CC
:1029100069F08F5F803411F0818301C01182818161
:10292000E80FF11D87FDFA958281089580E00895F2
:10293000FC0181E021819081291301C080E008958C
:10294000FC012181808182170CF4805C821B089538
:10295000A3E1B0E0EEEAF4E10C94D8187C011B018D
:102960006A01FC0117821682838181FF66C3BE0162
:102970006F5F7F4F4B01F7019381F10193FD8591CB
:1029800093FF81911F01882309F453C3853239F4E1
:1029900093FD859193FF81911F01853239F4B70131
:1029A00090E00E94141D56016501E5CF10E0512C06
:1029B00020E02032A0F48B3269F030F4803259F0FC
:1029C000833269F420612CC08D3239F0803339F4C0
:1029D000216026C02260246023C0286021C027FD1A
:1029E00027C030ED380F3A3078F426FF06C0FAE001
:1029F0001F9F300D1124132F13C06AE0569E300D17
:102A00001124532E20620CC08E3221F426FD11C3F6
:102A1000206406C08C3611F4206802C0883641F468
:102A2000F10193FD859193FF81911F018111C1CF28
:102A30009BEB980F933018F42061805E06C09BE9F1
:102A4000980F933008F0AAC12F7E26FF16E02F734F
:102A5000722E853621F4F22FF0647F2E08C0863660
:102A600021F4622F6068762E02C01111115077FE9A
:102A700007C01C3348F444244394410E27E00BC0A4
:102A8000183030F4212F06C027E04CE3442E03C059
:102A900027E017E0412C560174E0A70EB11CF601A7
:102AA0006081718182819381042DA4010E94261C82
:102AB0006C01098100FF02C003FF06C071FC07C062
:102AC00072FC08C0612C08C03DE2632E05C02BE2F9
:102AD000622E02C090E2692E802F8C7099F16620E0
:102AE00011F084E001C083E0851510F0512C0BC07B
:102AF000581A73FC08C0B70180E290E00E94141DD0
:102B00005A94C9F7F3CF662029F0B701862D90E0DB
:102B10000E94141D03FD03C001E311E002C00DE299
:102B200011E0F72DF0717F2EF8018491882309F4CC
:102B300076C271108052B70190E00E94141D0F5FA1
:102B40001F4FF2CF77FE0FC04C0C04FF04C08A81E8
:102B5000813309F44A94141474F5F8E0F41578F507
:102B600088E0482E2CC076FC2AC0812F90E08C157E
:102B70009D059CF06CEFC6166FEFD60674F0772DAE
:102B80007068772E0AC0E2E0F0E0EC0FFD1FE10F65
:102B9000F11D8081803319F411501111F4CF77FEAB
:102BA0000EC044244394410E812F90E0C816D906EC
:102BB0002CF41C1904C04424439401C010E077FE97
:102BC00007C01C141D043CF496012F5F3F4F05C045
:102BD00025E030E002C021E030E0662011F02F5FF8
:102BE0003F4F112331F0412F50E04F5F5F4F240FD3
:102BF000351F452D50E02417350714F4521A01C033
:102C0000512C872D897049F4552039F0B70180E2A5
:102C100090E00E94141D5A94F7CF662029F0B70166
:102C2000862D90E00E94141D73FC09C0552039F0D8
:102C3000B70180E390E00E94141D5A94F7CF77FE0D
:102C40005FC09C2D8D2DD7FE02C090E080E0692EE4
:102C5000782E40E050E0C601841991099D878C8749
:102C6000960126193709280D391D812F90E0EE278E
:102C7000FF27E81BF90BFF87EE87FFEF6F167F0634
:102C800069F4B7018EE290E02B8B3A8B488B598B1D
:102C90000E94141D598948893A892B89C614D70482
:102CA00054F06C857D85661577052CF4F901E40FE9
:102CB000F51F818101C080E371E0671A71084F5FE1
:102CC0005F4FEE85FF856E167F066CF0B70190E0D2
:102CD0002B8B3A8B488B598B0E94141D2B893A8978
:102CE00048895989CACF6C147D0439F49A81963386
:102CF00018F4953311F404FF81E3B70190E04BC061
:102D00008A81813309F00F7EB70190E00E94141D83
:102D1000111105C074FE18C085E490E017C0B7011A
:102D20008EE290E00E94141D82E066246394680E97
:102D3000F401E80FF11D8081B70190E00E94141D9D
:102D4000115041F3862DF1CF85E690E0B7010E9446
:102D5000141DD7FC05C0C114D10439F404FF05C00B
:102D6000D194C194D1088DE201C08BE2B70190E00B
:102D70000E94141D80E36AE0C616D1042CF08F5F18
:102D8000FAE0CF1AD108F7CFB70190E00E94141DE6
:102D9000B701C601C0960E94141D41C1833631F0AF
:102DA000833779F0833509F058C021C0560172E0AD
:102DB000A70EB11CF6018081898301E010E0640157
:102DC00014C05601F2E0AF0EB11CF601C080D180F4
:102DD00026FF03C0612F70E002C06FEF7FEFC601D6
:102DE0002B8B0E94091D8C012B892F7715C0560152
:102DF000F2E0AF0EB11CF601C080D18026FF03C007
:102E0000612F70E002C06FEF7FEFC6012B8B0E9435
:102E1000FE1C8C012B892068722E23FD1AC0852D83
:102E200090E008171907A8F4B70180E290E00E942B
:102E3000141D5A94F4CFF60177FC859177FE8191A9
:102E40006F01B70190E00E94141D51105A94015077
:102E500011090115110579F7E2C0843611F08936A0
:102E600051F5560127FF09C0F4E0AF0EB11CF60181
:102E700060817181828193810AC0F2E0AF0EB11C42
:102E8000F60160817181882777FD8095982F022F48
:102E90000F7697FF08C090958095709561957F4F4C
:102EA0008F4F9F4F00682AE030E0A4010E945A1D16
:102EB000C82EC8183EC0022F853721F40F7E2AE0A5
:102EC00030E01DC0097F8F3691F018F4883559F035
:102ED000B0C0803719F0883711F0ABC0006104FF33
:102EE00009C0046007C024FF08C0066006C028E0CF
:102EF00030E005C020E130E002C020E132E05601C0
:102F000007FF09C0F4E0AF0EB11CF60160817181CA
:102F10008281938108C0F2E0AF0EB11CF60160819E
:102F2000718180E090E0A4010E945A1DC82EC8184B
:102F30000F7706FF0BC0202F2E7FC11650F404FF21
:102F40000AC002FD08C0202F2E7E05C0DC2C202FD9
:102F500003C0DC2C01C0D12E24FF0DC0FE01EC0DFE
:102F6000F11D8081803311F4297E09C022FF06C043
:102F7000D394D39404C0822F867809F0D39423FD90
:102F800013C020FF06C01C2DD51418F4150D1D19F3
:102F9000D52CD51468F4B70180E290E02B8B0E9409
:102FA000141DD3942B89F5CFD51410F45D1801C0EE
:102FB000512C24FF12C0B70180E390E02B8B0E94BC
:102FC000141D2B8922FF17C021FF03C088E590E064
:102FD00002C088E790E0B7010CC0822F867859F0D4
:102FE00021FD02C080E201C08BE227FD8DE2B70126
:102FF00090E00E94141DC11638F4B70180E390E000
:103000000E94141D1150F7CFCA94F401EC0DF11D6C
:103010008081B70190E00E94141DC110F5CF5520AA
:1030200009F4C2CCB70180E290E00E94141D5A94CA
:10303000F6CFF7018681978102C08FEF9FEF6396ED
:10304000E2E10C94F418CF93DF93CDB7DEB7CC5AFE
:10305000D1090FB6F894DEBF0FBECDBF0E94F613A4
:103060000E94A8030E94B7078AEC91E09093D403D2
:103070008093D30380E090E00E94790D83E090E09C
:103080000E949C0D81E090E00E94B10D82E090E0F2
:103090000E948A0D81E3A82E82E0B82E24E130E060
:1030A00040E050E060E070E080E090E00E941A02B2
:1030B00041E050E063E070E0CE018F569F4F0E94E8
:1030C0000F0E0E94AF0C892B19F00E94B40CE6CFB2
:1030D000C356DF4FC880D980EA80FB80CD59D040ED
:1030E000F7FAF094F7F8F094CB56DF4F68817981C6
:1030F0008A819B81C559D040A70196010E94C319BE
:103100002B013C01C756DF4F688179818A819B8101
:10311000C959D040A70196010E94C3196B017C01D7
:10312000CF55DF4F088119812A813B81C15AD04098
:10313000B301A201CE01C1960E945F0FCB55DF4FB4
:10314000088119812A813B81C55AD040B701A60167
:103150007058CE018F599F4F0E945F0F8C818F93C3
:103160008B818F938A818F9389818F938CA98F9381
:103170008BA98F938AA98F9389A98F93A5968FADD9
:10318000A5978F93A4968FADA4978F93A3968FAD99
:10319000A3978F93A2968FADA2978F93BF92AF9272
:1031A0000E94461D0FB6F894DEBF0FBECDBF76CF8E
:1031B0002F923F924F925F926F927F928F929F9247
:1031C000AF92BF92CF92DF92EF92FF920F931F9335
:1031D000CF93DF93CDB7DEB7CA1BDB0B0FB6F894E6
:1031E000DEBF0FBECDBF09942A88398848885F8426
:1031F0006E847D848C849B84AA84B984C884DF8097
:10320000EE80FD800C811B81AA81B981CE0FD11D7A
:103210000FB6F894DEBF0FBECDBFED010895EE0FDF
:10322000FF1F0590F491E02D09940F93083090F062
:10323000982F872F762F652F542F432F322F222739
:103240000850F4CF220F331F441F551F661F771FEE
:10325000881F991F0A95B2F70F9108952A0D3B1DFB
:103260004C1D5D1D6E1D7F1D801F911F0895002444
:10327000A7FD00942A0F301D401D501D601D701DBC
:10328000801D901D08950024A7FD00942A17300585
:10329000400550056005700580059005089550585B
:1032A000BB27AA270ED02BC21CD230F021D220F08F
:1032B00031F49F3F11F41EF4DCC10EF4E095E7FBFE
:1032C000D2C1E92F2DD280F3BA17620773078407A2
:1032D000950718F071F49EF545C20EF4E0950B2E9B
:1032E000BA2FA02D0B01B90190010C01CA01A00158
:1032F0001124FF27591B99F0593F50F4503E68F1B3
:103300001A16F040A22F232F342F4427585FF3CFF3
:10331000469537952795A795F0405395C9F77EF4C4
:103320001F16BA0B620B730B840BBAF09150A1F00D
:10333000FF0FBB1F661F771F881FC2F70EC0BA0F93
:10334000621F731F841F48F4879577956795B7951B
:10335000F7959E3F08F0B3CF9395880F08F0992713
:10336000EE0F979587950895BCD158F080E891E0CD
:1033700009F49EEFBDD128F040E851E059F45EEF2A
:1033800009C077C1EFC1E92FE078CAD168F3092EEF
:10339000052AC1F3261737074807590738F00E2EBC
:1033A00007F8E02569F0E025E0640AC0EF6307F85C
:1033B000009407FADB01B9019D01DC01CA01AD01EE
:1033C000EF9343D09CD10AD05F91552331F02BED80
:1033D0003FE049E450FD49EC63CF0895DF93DD27DA
:1033E000B92FBF7740E85FE31616170648075B075B
:1033F00010F4D92FBED19F938F937F936F9323D2D5
:10340000E0E0F1E049D17BD12F913F914F915F9165
:10341000C3D1DD2349F09058A2EA2AED3FE049EC00
:103420005FE3D0785D274DDFDF9169C10CD067C1C4
:103430005FD140F056D130F021F45F3F19F013C155
:10344000511191C116C16CD198F39923C9F3552339
:10345000B1F3951B550BBB27AA2762177307840787
:1034600038F09F5F5F4F220F331F441FAA1FA9F33D
:1034700033D00E2E3AF0E0E830D091505040E6952F
:10348000001CCAF729D0FE2F27D0660F771F881F90
:10349000BB1F261737074807AB07B0E809F0BB0B7F
:1034A000802DBF01FF2793585F4F2AF09E3F5105A3
:1034B00068F0D9C058C15F3FECF3983EDCF38695C5
:1034C00077956795B795F7959F5FC9F7880F911D19
:1034D0009695879597F90895E1E0660F771F881F05
:1034E000BB1F621773078407BA0720F0621B730BB8
:1034F000840BBA0BEE1F88F7E0950895BEE304D065
:1035000008F490E80895BFE322273327A90110D1DA
:1035100058F19F5740F1B91738F1BFE3B91B99270C
:10352000B8503AF4660F771F881F991FB395D2F3EE
:1035300016C0B8504AF0232F342F452F562F672F2F
:10354000782F8827B850BAF7B85F49F086957795F5
:1035500067955795479537952795BA95B9F70EF41E
:103560008BD088940895889460E070E0CB01089532
:10357000E89409C097FB3EF490958095709561950D
:103580007F4F8F4F9F4F9923A9F0F92F96E9BB27C3
:103590009395F695879577956795B795F111F8CF3F
:1035A000FAF4BB0F11F460FF1BC06F5F7F4F8F4FAA
:1035B0009F4F16C0882311F096E911C0772321F0A0
:1035C0009EE8872F762F05C0662371F096E8862F38
:1035D00070E060E02AF09A95660F771F881FDAF78F
:1035E000880F9695879597F90895E894F92F96EBAB
:1035F000FF2381F0121613061406440B9395F695DB
:1036000087957795679557954040FF23B9F71BC07D
:1036100099270895882351F49850D2F7872B762F55
:10362000652F542F432F322F20E0B1F312161306CB
:103630001406440B88233AF09A95440F551F661FD1
:10364000771F881FCAF755234AF4440F551F11F4FA
:1036500060FF04C06F5F7F4F8F4F9F4F880F96951D
:10366000879597F9089597F99F6780E870E060E083
:1036700008959FEF80EC08959095809570956095E2
:1036800050954095309521953F4F4F4F5F4F6F4F6D
:103690007F4F8F4F9F4F0895DF93CF931F930F93CB
:1036A000FF92EF92DF927B018C01689405C0DA2EC5
:1036B000EF0172D0FE01E894A591259135914591D5
:1036C0005591AEF3EF01FDDDFE019701A801DA94FB
:1036D00079F7DF90EF90FF900F911F91CF91DF91DD
:1036E000089500240A941616170618060906089568
:1036F00000240A9412161306140605060895092ECE
:103700000394000C11F4882352F0BB0F40F4BF2B3C
:1037100011F460FF04C06F5F7F4F8F4F9F4F08957C
:1037200057FD9058440F551F59F05F3F71F0479572
:10373000880F97FB991F61F09F3F79F08795089557
:10374000121613061406551FF2CF4695F1DF08C076
:10375000161617061806991FF1CF86957105610593
:1037600008940895E894BB2766277727CB0197F93B
:1037700008959B01AC0160E070E080E89FE356CEC5
:103780000BD0BDCFAEDF28F0B3DF18F0952309F0E2
:103790006ACF6FCF1124E7CFC3DFA0F3959FD1F39A
:1037A000950F50E0551F629FF001729FBB27F00DEF
:1037B000B11D639FAA27F00DB11DAA1F649F662744
:1037C000B00DA11D661F829F2227B00DA11D621F93
:1037D000739FB00DA11D621F839FA00D611D221F4D
:1037E000749F3327A00D611D231F849F600D211D31
:1037F000822F762F6A2F11249F5750408AF0E1F0D4
:1038000088234AF0EE0FFF1FBB1F661F771F881F1C
:1038100091505040A9F79E3F510570F024CFA3CF9F
:103820005F3FECF3983EDCF3869577956795B79507
:10383000F795E7959F5FC1F7FE2B880F911D969531
:10384000879597F908959B01AC019ACF283008F02D
:1038500027E03327DA01990F311D87FD916000962B
:103860006105710539F432602E5F3D9330E32A958E
:10387000E1F708959F3F30F080387105610509F048
:103880003C5F3C5F3D93913008F08068911DDF9371
:10389000CF931F930F93FF92EF92192F987F9695D6
:1038A000E92F96959695E90FFF27EC52FE4F992741
:1038B0003327EE24FF24A701E7010590089407941D
:1038C00028F4360FE71EF81E491F511D660F771F9B
:1038D000881F991F0694A1F70590079428F4E70E16
:1038E000F81E491F561FC11D770F881F991F661F9D
:1038F0000694A1F70590079428F4F80E491F561F67
:10390000C71FD11D880F991F661F771F0694A1F747
:103910000590079420F4490F561FC71FD81F990F11
:10392000661F771F881F0694A9F78491109517705A
:1039300041F0D695C79557954795F794E7941A9512
:10394000C1F7EAE7F1E0689415901591359165911A
:10395000959105907FE27395E118F10A430B560BA0
:10396000C90BD009C0F7E10CF11E431F561FC91F38
:10397000D01D7EF4703311F48A95E6CFE89401509F
:1039800030F0080F0AF40027021708F4202F2395BF
:10399000022F7A3328F079E37D932A95E9F710C056
:1039A0007D932A9589F6069497956795379517958F
:1039B0001794E118F10A430B560BC90BD00998F084
:1039C00023957E9173957A3308F070E37C932013EE
:1039D000B8F77E9170617D9330F0839571E37D93AC
:1039E00070E32A95E1F71124EF90FF900F911F915A
:1039F000CF91DF91992787FD90950895FC0105905F
:103A0000615070400110D8F7809590958E0F9F1FE0
:103A10000895FC016150704001900110D8F7809525
:103A200090958E0F9F1F08950F931F93CF93DF9351
:103A3000182F092FEB018B8181FD03C08FEF9FEFC2
:103A400020C082FF10C04E815F812C813D814217D2
:103A500053077CF4E881F9819F012F5F3F4F398341
:103A60002883108306C0E885F985812F0995892B65
:103A700029F72E813F812F5F3F4F3F832E83812F78
:103A8000902FDF91CF911F910F910895A0E0B0E0AA
:103A9000ECE4FDE10C94E818FE013596619171911A
:103AA000AF018091D3039091D4030E94A814E2E067
:103AB0000C940419FA01AA27283051F1203181F120
:103AC000E8946F936E7F6E5F7F4F8F4F9F4FAF4F26
:103AD000B1E03ED0B4E03CD0670F781F891F9A1F39
:103AE000A11D680F791F8A1F911DA11D6A0F711DED
:103AF000811D911DA11D20D009F468943F912AE0F9
:103B0000269F11243019305D3193DEF6CF010895E0
:103B1000462F4770405D4193B3E00FD0C9F7F6CF11
:103B2000462F4F70405D4A3318F0495D31FD4052D9
:103B3000419302D0A9F7EACFB4E0A695979587956F
:103B400077956795BA95C9F700976105710508954E
:103B50009B01AC010A2E06945795479537952795FA
:103B6000BA95C9F7620F731F841F951FA01D089592
:043B7000F894FFCFF7
:103B740000E1000000000007000300000000060050
:103B8400030000000005000300000000040003001F
:103B9400000000010003000000000000030000001A
:103BA40000040401000000000408010000000004F7
:103BB40002010000000204010200000000041001E0
:103BC400000000080340020000000E048002000010
:103BD4000000054001000000000210010000000385
:103BE40002200200000004024002000000010280E2
:103BF40002000000000440010000000B03800200EA
:103C04000000000000002300260029002C002F00E3
:103C140000000000250028002B002E0031000000C9
:103C24000000240027002A002D00300000000002BC
:103C340000000000470A000000000000000200002D
:103C44000000C90B0000000000000001000000009B
:103C5400310B00000000080B0002020201000904FD
:103C640000000102020000052400100105240101E6
:103C7400010424020605240600010705810310003F
:103C84004009040100020A00000007050202400086
:103C9400000705830240000009024B000201008076
:103CA400FA252E326609252E326609252E32660A39
:023CB40000000E
:00000001FF
