:100000000C9424010C9441010C9441010C94410185
:100010000C9441010C9441010C9441010C94410158
:100020000C9441010C9441010C9454040C94B203BF
:100030000C9441010C9441010C9441010C94410138
:100040000C9441010C9441010C9441010C94410128
:100050000C9441010C9441010C9441010C94430116
:100060000C9441010C94890A0C94550A0C9441019A
:100070000C9441010C9441010C9441010C944101F8
:100080000C9441010C9441010C9441010C944101E8
:100090000C949E080C9441010C9441010C94410174
:1000A0000C9441010C9441010C944101100514057C
:1000B00018051C053D053D053D0522053D053D0591
:1000C00028053D053D0533056105650569056D0597
:1000D00084058405840573058405840579058405F4
:1000E00084057F05AC06AE06B006B906D006D0067C
:1000F000D006C206D006D006CB06D006D006CE0665
:100100006E616E00696E660012010002020000401E
:1001100041234180000101020001120100020000A0
:1001200000404123418000010102000141726475D9
:10013000696E6F2059756E0055534220494F204219
:100140004F415244000403090400C1808100407AF9
:1001500010F35A00A0724E18090010A5D4E8000050
:10016000E87648170000E40B54020000CA9A3B00EE
:100170000000E1F505000080969800000040420F65
:10018000000000A08601000000102700000000E829
:1001900003000000006400000000000A00000000EE
:1001A000000100000000002C76D888DC674F08238F
:1001B000DFC1DFAE59E1B1B796E5E3E453C63AE6F5
:1001C00051997696E8E6C28426EB898C9B62ED40D5
:1001D0007C6FFCEFBC9C9F40F2BAA56FA5F4900524
:1001E0005A2AF75C936B6CF9676DC11BFCE0E40D58
:1001F00047FEF520E6B500D0ED902E03009435774C
:10020000050080841E080000204E0A000000C80C73
:10021000333333330F986E12831141EF8D211489DC
:100220003BE65516CFFEE6DB18D1844B381BF77C36
:100230001D901DA4BBE424203284725E228100C97B
:10024000F124ECA1E53D270011241FBECFEFDAE039
:10025000DEBFCDBF12E0A0E0B1E0E6EEFBE202C0FF
:1002600005900D92AA33B107D9F713E0AAE3B2E0E3
:1002700001C01D92AF3CB107E1F70E94A1110C949F
:10028000F1150C9400001F920F920FB60F921124DB
:100290002F933F934F935F936F937F938F939F938E
:1002A000AF93EF93FF9320913A0230913B0240913C
:1002B0003C0250913D0260913E0270913F0280915C
:1002C000400290914102F0914A02E3E0EF0FED37D6
:1002D00010F4A1E003C0E6E8EF0FA2E00E941E12B6
:1002E000E0934A0220933A0230933B0240933C024F
:1002F00050933D0260933E0270933F028093400210
:100300009093410220914202309143024091440275
:1003100050914502609146027091470280914802D7
:1003200090914902A1E00E941E1220934202309354
:1003300043024093440250934502609346027093F7
:1003400047028093480290934902FF91EF91AF9149
:100350009F918F917F916F915F914F913F912F91DD
:100360000F900FBE0F901F901895EFB7F894209143
:100370003A0230913B0240913C0250913D02609123
:100380003E0270913F028091400290914102EFBF86
:100390000895AF92BF92CF92DF92EF92FF920F93A8
:1003A0001F93EFB7F894209142023091430240919D
:1003B000440250914502609146027091470280913B
:1003C000480290914902A6B4A89B03C0A1E00E94F4
:1003D0001E12EFBF08E00E94FC111A2D110F110B25
:1003E000B12EC12ED12EE12EF12E012F0E94151219
:1003F00002E00E94FC111F910F91FF90EF90DF909F
:10040000CF90BF90AF9008952F923F924F925F92FE
:100410006F927F928F929F92AF92BF92CF92DF9214
:10042000EF92FF920F931F93CF93DF9319012A014D
:100430003B018C010E94C901C22FD32F9101A2015F
:10044000B301C801A0E00E942A12C1F00E94C901B4
:1004500049018C1A9D0A88EE881683E0980674F389
:100460009101A201B301C801AFEF0E941E12190150
:100470002A013B018C01C851DC4FE0CFDF91CF91C5
:100480001F910F91FF90EF90DF90CF90BF90AF90B2
:100490009F908F907F906F905F904F903F902F90A4
:1004A00008958F929F92AF92BF92CF92DF92EF9278
:1004B000FF920F93CF93DF93AFEF0E941E12A0E045
:1004C0000E942A1279F002E00E94FC11AEEF0E9415
:1004D0001E125A016B017C01C901D501E601F70129
:1004E0000197F1F7DF91CF910F91FF90EF90DF909F
:1004F000CF90BF90AF909F908F900895AF92BF9292
:10050000CF92DF92EF92FF920F931F93CF93DF93DF
:10051000CDB7DEB762970FB6F894DEBF0FBECDBF82
:100520006C01B9015A01298B7A8B0E94E50597016C
:10053000A80169897A89C5010E943D132AED3BE330
:100540004FE952E40E949B1220E030E040E851E481
:100550000E94DC130E94081329833A834B835C8337
:100560006D837E838F839887D6011196EC911197C6
:10057000EE0FFF0BEE56FE4F0190F081E02D12962C
:100580001C9180818123B9F529813A814B815C815D
:100590006D817E818F819885AFEF0E941E12298325
:1005A0003A834B835C836D837E838F839887A0E03F
:1005B0000E942A1231F720E030E040E050E060E095
:1005C00070E080E090E06FC029813A814B815C81CE
:1005D0006D817E818F819885AFEF0E941E122983E5
:1005E0003A834B835C836D837E838F839887A0E0FF
:1005F0000E942A1201F38081812331F719861A861D
:100600001B861C861D861E861F86188A8081812374
:1006100061F529813A814B815C816D817E818F8179
:100620009885AFEF0E941E1229833A834B835C8327
:100630006D837E838F839887A0E00E942A1209F43D
:10064000BACF29853A854B855C856D857E858F85FA
:100650009889A1E00E941E1229873A874B875C8700
:100660006D877E878F87988BD1CF29853A854B857B
:100670005C856D857E858F8598890E943D1328E372
:100680003BE24CE852E40E94DC1320E030E040E81A
:1006900051E40E94371220E030E040E85DE30E9420
:1006A000DC130E94081362960FB6F894DEBF0FBEEB
:1006B000CDBFDF91CF911F910F91FF90EF90DF9011
:1006C000CF90BF90AF900895CF93DF93EA010E943F
:1006D0001106FE0138979F2F990F990B9F01492F03
:1006E000592F692F792F892FDF91CF910C945102C7
:1006F000CF93DF9300D0CDB7DEB75A8349830E94F2
:1007000011064981242F3A81932F990F990B492F74
:10071000592F692F792F892F0F900F90DF91CF914B
:100720000C9404021092C00281E08093D70080EA0A
:100730008093D80082E189BD09B400FEFDCF21E09D
:1007400030E040E050E060E070E080E090E00E9447
:10075000040280E98093D8008CE08093E20010923C
:10076000E00008951F920F920FB60F9211240F937D
:100770001F932F933F934F935F936F937F938F9329
:100780009F93AF93BF93EF93FF93CF93DF93CDB737
:10079000DEB72897DEBFCDBF1092E9008091E80058
:1007A000FE0131969E01275F3F4F8F01E217F3074D
:1007B00021F08091F1008193F9CF82EF8093E800DE
:1007C000898187FF05C08091E80080FFFCCF03C0CE
:1007D0008EEF8093E8000E949E0C8981982F90767E
:1007E00091F52A812630D1F02CF4222349F02530CE
:1007F00061F034C02830B1F00CF12930B9F02EC0CE
:100800001092F1001092F10029C08091E80080FF61
:10081000FCCF8B8180688093E30020C0C8010E94D8
:100820004B071CC081E08093F10018C0837031F445
:100830000E94DE068B818093C00210C083E090E0AE
:100840000E948E0C0BC08F8198850E94F10B2D8128
:100850003E81232B99F7C8010E94A2040E94990CA3
:10086000892B21F081E28093EB0003C08EEF80930F
:10087000E80028960FB6F894DEBF0FBECDBFDF911B
:10088000CF91FF91EF91BF91AF919F918F917F9108
:100890006F915F914F913F912F911F910F910F9009
:1008A0000FBE0F901F9018951F920F920FB60F92C8
:1008B00011242F933F934F935F936F937F938F9365
:1008C0009F93AF93BF93CF93EF93FF93C091E100BA
:1008D0001092E100C3FF0AC042E360E080E00E94A2
:1008E000D4061092C00288E08093F000C2FF18C0C6
:1008F00083E00E94BF0A82E08093E9000E94A30C7B
:10090000C091F2000E94A60CCC2351F082E00E941C
:100910001B0B682F85E493E00E94080DC150F4CFB3
:10092000FF91EF91CF91BF91AF919F918F917F9167
:100930006F915F914F913F912F910F900FBE0F904C
:100940001F901895CF93DF93EC010E949E0C888135
:10095000813209F03DC08981803241F467E070E066
:1009600080E091E0DF91CF910C94780C823281F598
:100970008A81809305010E94DC0B80910001909197
:100980000101803B944051F58091050180FD12C02A
:1009900087E797E790930108809300082BE088E1B0
:1009A00090E00FB6F894A895809360000FBE209356
:1009B000600014C088E10FB6F89480936000109234
:1009C00060000FBEA895109201081092000806C0A2
:1009D00084E090E0DF91CF910C948E0CDF91CF9169
:1009E0000895DC0113968D919C911497029709F05C
:1009F0004AC015968D919C911697029709F443C0B1
:100A00004C91552747FD5095652F752F4150510941
:100A10004E30510590F54A5A5F4FFA010C94F61189
:100A200084B5806884BD29C085B5806285BD25C038
:100A300080918000806803C08091800080628093F4
:100A400080001BC08091900080688093900015C04A
:100A50008091C00080688093C0008091C0008B7F2F
:100A60008093C0000AC08091C20088608093C20059
:100A70008091C2008B7F8093C20082E090E0169646
:100A80009C938E9315970895DC0113968D919C91FC
:100A900014970297E9F515968D919C911697892BDD
:100AA000B9F14C91552747FD5095652F752F415051
:100AB00051094E30510540F54C595F4FFA010C94E5
:100AC000F61184B58F7784BD1FC085B58F7D85BD38
:100AD0001BC0809180008F7703C0809180008F7D44
:100AE0008093800011C0809190008F778093900058
:100AF0000BC08091C0008F778093C00005C08091AB
:100B0000C200877F8093C20016961C921E92159792
:100B10000895EF92FF920F931F93CF93DF93EC0111
:100B20008B819C8101970297E0F58D819E81892BB5
:100B3000C1F58981880F990BFC01E255FE4F0081B8
:100B40001181FC01E056FE4FE080F18061110EC082
:100B50000E94A30CF80190812A8120959223908312
:100B6000F70190812A812095922314C0613021F4ED
:100B70000E94A30CF8010BC0623099F40E94A30CF0
:100B8000F80190812A81209592239083F70190812A
:100B90002A81922B90830E94A60C81E090E09E8394
:100BA0008D83DF91CF911F910F91FF90EF9008956A
:100BB000FC01838194810197029730F485819681AD
:100BC000892B11F0168215820895CF93DF93EC01E3
:100BD0002B813C81C90101970297F8F48D819E8198
:100BE0002230310539F48230910521F4CE010E9482
:100BF000440506C0892B21F460E0CE010E948905DE
:100C0000E981EE0FFF0BEE56FE4F0190F081E02DD3
:100C100090818A81982381E009F080E0DF91CF9173
:100C20000895FF920F931F93CF93DF93EC01F62E5D
:100C30002B813C81C9010197029760F58D819E81CE
:100C40002230310539F48230910521F4CE010E9421
:100C5000440506C0892B21F461E0CE010E9489057C
:100C6000E981EE0FFF0BE056FE4F008111810E94DB
:100C7000A30C2A81F8019081F11003C020959223E2
:100C800001C0922B9083DF91CF911F910F91FF9024
:100C90000C94A60CDF91CF911F910F91FF900895B6
:100CA000FC0183819481039769F580917B00918198
:100CB00093FB222720F930E045E0220F331F4A95AD
:100CC000E1F78F7D822B80937B0081818770806428
:100CD00080937C0080917A00806480937A00809178
:100CE0007A0086FDFCCF20917800809179009927C9
:100CF00087FD9095982F8827332727FD3095822BE5
:100D0000932B089580E090E008951F93CF93DF9395
:100D1000EC01162F8B819C81029709F041C08D81D7
:100D20009E81009729F461E0CE010E94890505C0EB
:100D3000019719F4CE010E94F1048881992787FD5B
:100D40009095A92FB92FFC013197EE30F10540F5B0
:100D5000EE58FF4F0C94F61117BD22C018BD20C0ED
:100D6000612F772767FD70957093890060938800E5
:100D700017C0612F772767FD709570938B00609384
:100D80008A000EC0612F772767FD709570939900D8
:100D90006093980005C01093CF0002C01093D2005A
:100DA000DF91CF911F9108958093E90081E08093B6
:100DB000EB006093EC004093ED000895E9E4F1E06E
:100DC00081E091E026E33196843059F034918093AC
:100DD000E9009093EB003093EC002093ED008F5FDF
:100DE000F2CF8EE78093EA001092EA0008950F9305
:100DF0001F93CF93DF93EC01062F862F880F8E5F12
:100E00000E94660C83E00E94660C10E010178CF4C0
:100E1000FE01E10FF11D17FDFA9584910E94660C09
:100E200080E00E94660C0E94990C892B11F41F5FD0
:100E3000EDCFDF91CF911F910F910895CF93DF9365
:100E4000CDB7DEB729970FB6F894DEBF0FBECDBF82
:100E500029E0E8E2F2E0DE01119601900D922A9578
:100E6000E1F70E94F10B49E050E0BE016F5F7F4F58
:100E700080E00E94FC0B42E450E066EE71E080E00E
:100E80000E94FC0B29960FB6F894DEBF0FBECDBFB3
:100E9000DF91CF910895CF93DF93EC012B818E8169
:100EA0009F81223021F4DF91CF910C941E070E9484
:100EB000F10B2B81213069F48E819F81089711F409
:100EC00020934B0280914B0281111CC0CAE1D1E0FA
:100ED0001EC02330F1F48A818823B9F0823021F4D6
:100EE0006CE088E391E005C0813039F46BE08CE27E
:100EF00091E0DF91CF910C94F70683E090E00E949F
:100F00008E0C07C0C8E0D1E002C0C5E4D1E0209754
:100F100031F483E090E00E948E0CC0E0D0E00E94AB
:100F2000990C892B59F4FE014491552747FD5095A2
:100F3000BE0180E8DF91CF910C94FC0BDF91CF9143
:100F400008951092B90281E08093B7021092B60220
:100F500062E08EE391E00E94110662E085E491E098
:100F60000E941106E9EBF0E080818E7F8083808112
:100F70008D7F808388E48093B80085E48093BC00F3
:100F80000895880F990B8093BA00089541320CF0B0
:100F900047C09091B9029111FCCF91E09093B902B2
:100FA0002093B7022FEF20934C0210929102240F4E
:100FB000209390029093B8029091B802282F220FAC
:100FC000330B922B9093B8028091B602813041F49A
:100FD0001092B6028091B8028093BB0085EC01C0EC
:100FE00085EE8093BC008091B9028130E1F380915D
:100FF0009102841714F44091910280E0841774F4F4
:10100000282F332727FD3095FB01E20FF31FD9016D
:10101000AE56BD4F9C9190838F5FF0CF842F089583
:1010200080E008950F9341320CF046C09091B902D0
:101030009111FCCF92E09093B9020093B7029FEF19
:1010400090934C021092910240939002FB0162E94E
:1010500072E0DB019A2F961B94171CF491919D93DB
:10106000F9CF1092B8023091B802880F990B382B43
:101070003093B8028091B602813041F41092B602EA
:101080008091B8028093BB0085EC01C085EE80930F
:10109000BC00222321F08091B9028230E1F38091DB
:1010A0004C0280914C02803249F080914C02803396
:1010B00039F080914C0205C081E003C082E001C09C
:1010C00083E00F91089561329CF42091B90224309D
:1010D00089F460936E02FC0180E792E0DC012A2F24
:1010E000281B26171CF421912D93F9CF80E0089539
:1010F00081E0089582E008959093B3028093B20254
:1011000008959093B5028093B4020895882311F056
:1011100085EC01C085E88093BC00089585ED80933F
:10112000BC008091BC0084FDFCCF1092B9020895F0
:1011300085EC8093BC001092B90208951F920F9223
:101140000FB60F9211242F933F934F935F936F939A
:101150007F938F939F93AF93BF93EF93FF93809170
:10116000B900992787FD9095887F9927803691054A
:1011700009F4BAC0BCF58832910509F471C0ACF429
:101180008031910509F469C03CF4009709F419C154
:10119000089709F462C019C18831910509F460C04B
:1011A000809709F012C180E272C08034910509F481
:1011B0007FC05CF48033910509F468C0C89709F0DA
:1011C00004C188E380934C02C5C08035910509F4C1
:1011D00061C08835910509F470C08834910509F023
:1011E000F4C0F1C08839910509F4E1C0DCF4883716
:1011F000910509F479C04CF48836910509F474C05E
:101200008037910509F470C0E0C08838910509F471
:10121000CEC08039910509F46DC08038910509F080
:10122000D4C068C0803B910509F497C04CF4803A63
:10123000910509F473C0883A910509F48EC0C5C0C0
:10124000803C910509F4B7C0883C910509F4B3C00E
:10125000883B910509F496C0B8C08091B80212C0CD
:1012600090919102809190029817ACF5E0919102D3
:1012700081E08E0F80939102FF27E7FDF095EE56F7
:10128000FD4F80818093BB0085EC92C080E380930A
:101290004C0299C0E091910281E08E0F80939102FF
:1012A0008091BB00FF27E7FDF095EE56FD4F808350
:1012B000909191028091900277C0E091910281E03B
:1012C0008E0F809391028091BB00FF27E7FDF09580
:1012D000EE56FD4F80838091B702811174C081E08A
:1012E0008093B60284EA68C083E08093B9021092CA
:1012F0004D02CACF80914D0280320CF058C0E0916F
:101300004D0281E08E0F80934D028091BB00FF273C
:10131000E7FDF095E25BFD4F8083B6CF80914D02F3
:10132000803244F4E0914D02FF27E7FDF095E25B47
:10133000FD4F10820E948E0860914D02772767FD55
:101340007095E091B202F091B3028EE492E00995BB
:1013500010924D020E94980838C084E08093B90230
:1013600010926F0210926E02E091B402F091B502F9
:10137000099580916E02811105C081E080936E0213
:1013800010927002E0916F0281E08E0F80936F02E5
:10139000FF27E7FDF095E059FD4F80818093BB006A
:1013A00090916F0280916E0298170CF46DCF85E8D2
:1013B0008093BC000AC085EC8093BC001092B902F7
:1013C00004C010924C020E948E08FF91EF91BF91D1
:1013D000AF919F918F917F916F915F914F913F91CD
:1013E0002F910F900FBE0F901F9018951092CD0067
:1013F00087E68093CC00E8ECF0E080818D7F8083ED
:1014000088E18093C900EAECF0E08081806C808301
:101410001092C202109204031092C10210920303B0
:10142000089581EC92E00C944A0D81EC92E00E94C8
:101430004A0D882321F081EC92E00C94360D80E077
:101440000895682F83E093E00E94080DE9ECF0E036
:10145000808180628083E8ECF0E08081806480831A
:101460000895AF92BF92CF92DF92EF92FF920F93C7
:101470001F93CF93DF93CDB7DEB72E970FB6F894B7
:10148000DEBF0FBECDBF2E960FB6F894DEBF0FBEE7
:10149000CDBFDF91CF911F910F91FF90EF90DF9023
:1014A000CF90BF90AF900C94210A1F920F920FB66D
:1014B0000F9211242F933F934F935F936F937F93DA
:1014C0008F939F93AF93BF93EF93FF9383E093E04A
:1014D0000E944A0D811106C08091C9008F7D8093C2
:1014E000C90006C083E093E00E94360D8093CE00D1
:1014F000FF91EF91BF91AF919F918F917F916F91EC
:101500005F914F913F912F910F900FBE0F901F90C1
:1015100018951F920F920FB60F9211242F933F939D
:101520004F935F936F937F938F939F93AF93BF93EB
:10153000EF93FF938091C80082FD06C06091CE00BA
:1015400081EC92E00E94080DFF91EF91BF91AF9165
:101550009F918F917F916F915F914F913F912F91CB
:101560000F900FBE0F901F9018958091E800857026
:10157000E1F39091E80081E092FD80E0089580938E
:10158000E9008091F20018161CF48AE38093E800C9
:101590000895CF938093E9000E94A30C9091E800F6
:1015A000C091F2000E94A60C80E48C1BCF9108959C
:1015B000FF920F931F93CF93DF93F82E8B01EA01D5
:1015C0000E949E0C8091C002811107C082E090E0D1
:1015D0000E948E0C80E090E028C0F092E9000E940A
:1015E000A30C2091F200332727FD30952C173D07DF
:1015F0002CF4C091F200DD27C7FDD095F8019801C9
:101600002C0F3D1FE217F30721F09091F100919309
:10161000F9CF209739F09091F200911103C09BE629
:101620009093E8000E94A60CCE01DF91CF911F910C
:101630000F91FF900895CF93DF931F92CDB7DEB740
:10164000198241E050E0BE016F5F7F4F0E94D80ACF
:1016500089818D3009F48AE00F90DF91CF91089550
:101660008F929F92AF92BF92CF92DF92EF92FF92B2
:101670000F931F93CF93DF93C82EEB017A010E9443
:101680009E0C8091C002882361F087018AEFB82EFA
:101690008C2D8072A82E9C2D9074992E9AE3892E01
:1016A00019C081E090E00E948E0C80E090E04EC076
:1016B0008C2D0E94C90AD82E811110C0BA9489F3CA
:1016C00021E030E040E050E060E070E080E090E059
:1016D0000E940402101611065CF337C0282F33272E
:1016E00027FD3095021713070CF4D02E0D191109A0
:1016F000D7FC1395C092E9000E94A30CAA2039F0F0
:10170000DA949FEFD916B1F01092F100F9CFFE01F3
:101710009D2DC7FE07C0915058F024912093F100F1
:101720003196F9CF915020F021912093F100FACF1A
:10173000CD0DD11D9091E800E114F10419F4911040
:101740008092E8000E94A60CC5CFC701DF91CF911F
:101750001F910F91FF90EF90DF90CF90BF90AF90CF
:101760009F908F900895CF93DF931F92CDB7DEB7F0
:101770008983809105011816B4F441E050E0BE0160
:101780006F5F7F4F83E00E94300B89818A3081F444
:101790008DE0898341E050E0BE016F5F7F4F83E0C1
:1017A0000E94300B05C0698187E893E00E94080D14
:1017B0000F90DF91CF9108958091050118160CF0DC
:1017C000089587E893E00E944A0D882349F087E84E
:1017D00093E00E94360D60E070E00E94B30BF1CF01
:1017E00008951092E9001092BD021092BC029093ED
:1017F000BF028093BE020895AF92BF92CF92DF9254
:10180000EF92FF920F931F93CF93DF9300D0CDB74A
:10181000DEB7D82EF42EE52E69837A830E949E0CC3
:101820001092E9000F2D1E2D6981A62E7A81B72E08
:101830002EEFC22E01151105D1F16091BC027091FD
:10184000BD022091BE023091BF02621773077CF582
:101850000E94B50A811107C082E090E00E948E0CC0
:1018600080E090E026C0F501D7FE02C0849101C05F
:1018700080818093F1002091BC023091BD022F5FE6
:101880003F4F2F733327232B11F4C092E800209190
:10189000BC023091BD022F5F3F4F3093BD022093B9
:1018A000BC0201501109FFEFAF1ABF0AC3CF8F2D41
:1018B0009E2D0F900F90DF91CF911F910F91FF9070
:1018C000EF90DF90CF90BF90AF900895CF93DF93CC
:1018D0001F92CDB7DEB7898341E050E0BE016F5F54
:1018E0007F4F80E00E94FC0B0F90DF91CF91089515
:1018F0001092E9002091E80022FFFCCFFC01680F64
:10190000791FE617F70721F08091F1008193F9CF55
:101910008BEF8093E8008FEF9FEF08952091BA023C
:101920003091BB02232B21F49093BB028093BA0227
:1019300008958091BA029091BB0208951092BB0263
:101940001092BA0208958FB7F89408958FBF089542
:10195000789484B5826084BD84B5816084BD85B58A
:10196000826085BD85B5816085BDEEE6F0E0808151
:1019700081608083E1E8F0E0108280818260808372
:10198000808181608083E0E8F0E0808181608083F5
:10199000E1EBF0E0808184608083E0EBF0E0808127
:1019A00081608083E1E9F0E08081826080838081D2
:1019B00081608083E0E9F0E0808181608083E1ECF8
:1019C000F0E0808184608083808182608083808178
:1019D00081608083E3ECF0E0808181608083E0ECD3
:1019E000F0E0808182608083E2ECF0E080818160C1
:1019F0008083EAE7F0E08081846080838081826078
:101A00008083808181608083808180688083089565
:101A1000FC0180818F5F803411F0808301C01082CF
:101A20008081E80FF11D87FDFA9562830895EF929A
:101A3000FF920F931F93CF93DF931F92CDB7DEB723
:101A40008C017B01460F4E1549F0F70161917F0132
:101A5000C80149830E94080D4981F5CF0F90DF919D
:101A6000CF911F910F91FF90EF900895FC0181811C
:101A70009081891769F08F5F803411F0818301C0F4
:101A800011828181E80FF11D87FDFA958281089509
:101A900080E00895FC0181E021819081291301C03B
:101AA00080E00895FC012181808182170CF4805C24
:101AB000821B0895DF92EF92FF920F931F93CF93B3
:101AC000DF931F92CDB7DEB789837B01D42E00E070
:101AD00010E021E030E041E050E0BE016F5F7F4F59
:101AE00088E690E00E9412088F3F21F086E090E0A7
:101AF0000E948E0C21E04D2DB70188E60E94C6079A
:101B0000F82E8D1521F085E090E00E948E0C8F2D2F
:101B10000F90DF91CF911F910F91FF90EF90DF9089
:101B20000895FF920F931F93CF93DF9300D01F92DE
:101B3000CDB7DEB78B83F42E7A83698300E010E0A3
:101B400021E030E041E050E0BE016D5F7F4F88E66C
:101B500090E00E9412088F3F21F086E090E00E9402
:101B60008E0C4F2D552747FD509501E010E021E0E8
:101B700030E0BE016F5F7F4F88E690E00E94120860
:101B80008F3F21F086E090E00E948E0C0F900F9026
:101B90000F90DF91CF911F910F91FF9008950F93B8
:101BA0001F93CF93DF9300D0CDB7DEB78983FB01BE
:101BB00080818A8301E010E021E030E042E050E0E3
:101BC000BE016F5F7F4F88E690E00E9412088F3F52
:101BD00021F086E090E00E948E0C0F900F90DF9134
:101BE000CF911F910F910895CF93DF931F92CDB79F
:101BF000DEB741E0BE016F5F7F4F85E70E945A0D5F
:101C000089810F90DF91CF910895CF93DF931F9239
:101C1000CDB7DEB741E0BE016F5F7F4F8BE60E941C
:101C20005A0D89810F90DF91CF910895CF93DF9363
:101C30001F92CDB7DEB78983BE016F5F7F4F8BE602
:101C40000E94CF0D0F90DF91CF910895A3E1B0E0F6
:101C5000ECE2FEE00C94BF117C011B016A01FC0167
:101C600017821682838181FF66C3BE016F5F7F4F3B
:101C70004B01F7019381F10193FD859193FF8191D0
:101C80001F01882309F453C3853239F493FD8591EC
:101C900093FF81911F01853239F4B70190E00E94D2
:101CA0002D1556016501E5CF10E0512C20E02032C2
:101CB000A0F48B3269F030F4803259F0833269F449
:101CC00020612CC08D3239F0803339F4216026C078
:101CD0002260246023C0286021C027FD27C030ED8A
:101CE000380F3A3078F426FF06C0FAE01F9F300D17
:101CF0001124132F13C06AE0569E300D1124532E69
:101D000020620CC08E3221F426FD11C3206406C06F
:101D10008C3611F4206802C0883641F4F10193FD3D
:101D2000859193FF81911F018111C1CF9BEB980F8A
:101D3000933018F42061805E06C09BE9980F9330C1
:101D400008F0AAC12F7E26FF16E02F73722E85366B
:101D500021F4F22FF0647F2E08C0863621F4622F22
:101D60006068762E02C01111115077FE07C01C3337
:101D700048F444244394410E27E00BC0183030F45B
:101D8000212F06C027E04CE3442E03C027E017E0D4
:101D9000412C560174E0A70EB11CF60160817181DF
:101DA00082819381042DA4010E943F146C0109815A
:101DB00000FF02C003FF06C071FC07C072FC08C030
:101DC000612C08C03DE2632E05C02BE2622E02C0EA
:101DD00090E2692E802F8C7099F1662011F084E0DA
:101DE00001C083E0851510F0512C0BC0581A73FC0C
:101DF00008C0B70180E290E00E942D155A94C9F7FF
:101E0000F3CF662029F0B701862D90E00E942D15B2
:101E100003FD03C004E011E002C000E011E0F72D73
:101E2000F0717F2EF8018491882309F476C2711035
:101E30008052B70190E00E942D150F5F1F4FF2CF27
:101E400077FE0FC04C0C04FF04C08A81813309F473
:101E50004A94141474F5F8E0F41578F588E0482EE7
:101E60002CC076FC2AC0812F90E08C159D059CF03B
:101E70006CEFC6166FEFD60674F0772D7068772E6C
:101E80000AC0E2E0F0E0EC0FFD1FE10FF11D8081E0
:101E9000803319F411501111F4CF77FE0EC0442491
:101EA0004394410E812F90E0C816D9062CF41C19DA
:101EB00004C04424439401C010E077FE07C01C1402
:101EC0001D043CF496012F5F3F4F05C025E030E034
:101ED00002C021E030E0662011F02F5F3F4F112358
:101EE00031F0412F50E04F5F5F4F240F351F452DDC
:101EF00050E02417350714F4521A01C0512C872DD5
:101F0000897049F4552039F0B70180E290E00E94D1
:101F10002D155A94F7CF662029F0B701862D90E051
:101F20000E942D1573FC09C0552039F0B70180E3DC
:101F300090E00E942D155A94F7CF77FE5FC09C2D3C
:101F40008D2DD7FE02C090E080E0692E782E40E013
:101F500050E0C601841991099D878C879601261946
:101F60003709280D391D812F90E0EE27FF27E81B48
:101F7000F90BFF87EE87FFEF6F167F0669F4B70155
:101F80008EE290E02B8B3A8B488B598B0E942D155B
:101F9000598948893A892B89C614D70454F06C852D
:101FA0007D85661577052CF4F901E40FF51F818115
:101FB00001C080E371E0671A71084F5F5F4FEE85E3
:101FC000FF856E167F066CF0B70190E02B8B3A8B85
:101FD000488B598B0E942D152B893A89488959893C
:101FE000CACF6C147D0439F49A81963318F4953372
:101FF00011F404FF81E3B70190E04BC08A81813383
:1020000009F00F7EB70190E00E942D15111105C057
:1020100074FE18C085E490E017C0B7018EE290E02E
:102020000E942D1582E066246394680EF401E80F87
:10203000F11D8081B70190E00E942D15115041F3F0
:10204000862DF1CF85E690E0B7010E942D15D7FCD3
:1020500005C0C114D10439F404FF05C0D194C19462
:10206000D1088DE201C08BE2B70190E00E942D15EE
:1020700080E36AE0C616D1042CF08F5FFAE0CF1A35
:10208000D108F7CFB70190E00E942D15B701C60126
:10209000C0960E942D1541C1833631F0833779F007
:1020A000833509F058C021C0560172E0A70EB11C5B
:1020B000F6018081898301E010E0640114C05601BB
:1020C000F2E0AF0EB11CF601C080D18026FF03C044
:1020D000612F70E002C06FEF7FEFC6012B8B0E9473
:1020E00022158C012B892F7715C05601F2E0AF0E17
:1020F000B11CF601C080D18026FF03C0612F70E0C3
:1021000002C06FEF7FEFC6012B8B0E9417158C0169
:102110002B892068722E23FD1AC0852D90E00817A8
:102120001907A8F4B70180E290E00E942D155A9497
:10213000F4CFF60177FC859177FE81916F01B701AD
:1021400090E00E942D1551105A940150110901156B
:10215000110579F7E2C0843611F0893651F5560140
:1021600027FF09C0F4E0AF0EB11CF6016081718158
:10217000828193810AC0F2E0AF0EB11CF60160814A
:102180007181882777FD8095982F022F0F7697FF12
:1021900008C090958095709561957F4F8F4F9F4FA8
:1021A00000682AE030E0A4010E949315C82EC818E8
:1021B0003EC0022F853721F40F7E2AE030E01DC09B
:1021C000097F8F3691F018F4883559F0B0C0803708
:1021D00019F0883711F0ABC0006104FF09C004603A
:1021E00007C024FF08C0066006C028E030E005C034
:1021F00020E130E002C020E132E0560107FF09C0D3
:10220000F4E0AF0EB11CF60160817181828193818F
:1022100008C0F2E0AF0EB11CF6016081718180E070
:1022200090E0A4010E949315C82EC8180F7706FFEE
:102230000BC0202F2E7FC11650F404FF0AC002FDF0
:1022400008C0202F2E7E05C0DC2C202F03C0DC2CE4
:1022500001C0D12E24FF0DC0FE01EC0DF11D8081C7
:10226000803311F4297E09C022FF06C0D394D39491
:1022700004C0822F867809F0D39423FD13C020FF79
:1022800006C01C2DD51418F4150D1D19D52CD51408
:1022900068F4B70180E290E02B8B0E942D15D39457
:1022A0002B89F5CFD51410F45D1801C0512C24FFF3
:1022B00012C0B70180E390E02B8B0E942D152B8973
:1022C00022FF17C021FF03C088E590E002C088E725
:1022D00090E0B7010CC0822F867859F021FD02C032
:1022E00080E201C08BE227FD8DE2B70190E00E9401
:1022F0002D15C11638F4B70180E390E00E942D152A
:102300001150F7CFCA94F401EC0DF11D8081B70193
:1023100090E00E942D15C110F5CF552009F4C2CCD4
:10232000B70180E290E00E942D155A94F6CFF70194
:102330008681978102C08FEF9FEF6396E2E10C9454
:10234000DB110E94A80C0E9492038AEC91E090930A
:10235000CC038093CB0381E392E00E94661585E471
:1023600093E00E944A0D8823D1F385E493E00E9414
:10237000360D992787FD90950E945F15F0CF2F921B
:102380003F924F925F926F927F928F929F92AF9205
:10239000BF92CF92DF92EF92FF920F931F93CF9352
:1023A000DF93CDB7DEB7CA1BDB0B0FB6F894DEBFE9
:1023B0000FBECDBF09942A88398848885F846E840F
:1023C0007D848C849B84AA84B984C884DF80EE8059
:1023D000FD800C811B81AA81B981CE0FD11D0FB662
:1023E000F894DEBF0FBECDBFED010895EE0FFF1FC5
:1023F0000590F491E02D09940F93083090F0982FF8
:10240000872F762F652F542F432F322F22270850E6
:10241000F4CF220F331F441F551F661F771F881FDD
:10242000991F0A95B2F70F9108952A0D3B1D4C1D77
:102430005D1D6E1D7F1D801F911F08950024A7FD47
:1024400000942A0F301D401D501D601D701D801D01
:10245000901D08950024A7FD00942A17300540051B
:102460005005600570058005900508955058BB27FC
:10247000AA270ED067C158D130F05DD120F031F4D9
:102480009F3F11F41EF43DC10EF4E095E7FB33C10C
:10249000E92F69D180F3BA1762077307840795079C
:1024A00018F071F49EF581C10EF4E0950B2EBA2F51
:1024B000A02D0B01B90190010C01CA01A00111244A
:1024C000FF27591B99F0593F50F4503E68F11A16F6
:1024D000F040A22F232F342F4427585FF3CF469587
:1024E00037952795A795F0405395C9F77EF41F16A9
:1024F000BA0B620B730B840BBAF09150A1F0FF0F73
:10250000BB1F661F771F881FC2F70EC0BA0F621F5E
:10251000731F841F48F4879577956795B795F7954E
:102520009E3F08F0B3CF9395880F08F09927EE0FE0
:102530009795879508950CD005C1FDD040F0F4D053
:1025400030F021F45F3F19F0D6C051112FC1D9C02E
:102550000AD198F39923C9F35523B1F3951B550B71
:10256000BB27AA2762177307840738F09F5F5F4F66
:10257000220F331F441FAA1FA9F333D00E2E3AF0A7
:10258000E0E830D091505040E695001CCAF729D0C1
:10259000FE2F27D0660F771F881FBB1F2617370710
:1025A0004807AB07B0E809F0BB0B802DBF01FF2740
:1025B00093585F4F2AF09E3F510568F09CC0F6C0CB
:1025C0005F3FECF3983EDCF3869577956795B7957A
:1025D000F7959F5FC9F7880F911D9695879597F995
:1025E0000895E1E0660F771F881FBB1F621773070E
:1025F0008407BA0720F0621B730B840BBA0BEE1F23
:1026000088F7E0950895BEE304D008F490E80895B3
:10261000BFE322273327A901AED058F19F5740F1DD
:10262000B91738F1BFE3B91B9927B8503AF4660FD0
:10263000771F881F991FB395D2F316C0B8504AF080
:10264000232F342F452F562F672F782F8827B850E8
:10265000BAF7B85F49F0869577956795579547958E
:1026600037952795BA95B9F70EF44ED0889408950A
:10267000889460E070E0CB010895E894F92F96EB20
:10268000FF2381F0121613061406440B9395F6955A
:1026900087957795679557954040FF23B9F71BC0FD
:1026A00099270895882351F49850D2F7872B762FD5
:1026B000652F542F432F322F20E0B1F3121613064B
:1026C0001406440B88233AF09A95440F551F661F51
:1026D000771F881FCAF755234AF4440F551F11F47A
:1026E00060FF04C06F5F7F4F8F4F9F4F880F96959D
:1026F000879597F9089597F99F6780E870E060E003
:1027000008959FEF80EC0895909580957095609561
:1027100050954095309521953F4F4F4F5F4F6F4FEC
:102720007F4F8F4F9F4F089500240A941616170667
:1027300018060906089500240A94121613061406B2
:1027400005060895092E0394000C11F4882352F015
:10275000BB0F40F4BF2B11F460FF04C06F5F7F4FCD
:102760008F4F9F4F089557FD9058440F551F59F0B4
:102770005F3F71F04795880F97FB991F61F09F3F6E
:1027800079F087950895121613061406551FF2CF97
:102790004695F1DF08C0161617061806991FF1CFE7
:1027A00086957105610508940895E894BB2766270E
:1027B0007727CB0197F908950BD0C4CFB5DF28F068
:1027C000BADF18F0952309F096CF9BCF1124EECFF6
:1027D000CADFA0F3959FD1F3950F50E0551F629F7C
:1027E000F001729FBB27F00DB11D639FAA27F00D6A
:1027F000B11DAA1F649F6627B00DA11D661F829F91
:102800002227B00DA11D621F739FB00DA11D621F75
:10281000839FA00D611D221F749F3327A00D611D92
:10282000231F849F600D211D822F762F6A2F112474
:102830009F5750408AF0E1F088234AF0EE0FFF1FC7
:10284000BB1F661F771F881F91505040A9F79E3FFE
:10285000510570F050CFAACF5F3FECF3983EDCF308
:10286000869577956795B795F795E7959F5FC1F73B
:10287000FE2B880F911D9695879597F9089528301E
:1028800008F027E03327DA01990F311D87FD9160A9
:1028900000966105710539F432602E5F3D9330E397
:1028A0002A95E1F708959F3F30F080387105610562
:1028B00009F03C5F3C5F3D93913008F08068911DCA
:1028C000DF93CF931F930F93FF92EF92192F987F6F
:1028D0009695E92F96959695E90FFF27E955FE4FB6
:1028E00099273327EE24FF24A701E70105900894D8
:1028F000079428F4360FE71EF81E491F511D660F76
:10290000771F881F991F0694A1F70590079428F454
:10291000E70EF81E491F561FC11D770F881F991F0C
:10292000661F0694A1F70590079428F4F80E491F36
:10293000561FC71FD11D880F991F661F771F06944A
:10294000A1F70590079420F4490F561FC71FD81F01
:10295000990F661F771F881F0694A9F78491109519
:10296000177041F0D695C79557954795F794E7941A
:102970001A95C1F7EDE4F1E0689415901591359141
:102980006591959105907FE27395E118F10A430BEB
:10299000560BC90BD009C0F7E10CF11E431F561F9F
:1029A000C91FD01D7EF4703311F48A95E6CFE894E8
:1029B000015030F0080F0AF40027021708F4202F06
:1029C0002395022F7A3328F079E37D932A95E9F74E
:1029D00010C07D932A9589F606949795679537954B
:1029E00017951794E118F10A430B560BC90BD00940
:1029F00098F023957E9173957A3308F070E37C9379
:102A00002013B8F77E9170617D9330F0839571E368
:102A10007D9370E32A95E1F71124EF90FF900F91D9
:102A20001F91CF91DF91992787FD90950895FC0123
:102A30000590615070400110D8F7809590958E0FE9
:102A40009F1F0895FC016150704001900110D8F75C
:102A5000809590958E0F9F1F08950F931F93CF938E
:102A6000DF93182F092FEB018B8181FD03C08FEFBE
:102A70009FEF20C082FF10C04E815F812C813D817D
:102A8000421753077CF4E881F9819F012F5F3F4F84
:102A900039832883108306C0E885F985812F09953D
:102AA000892B29F72E813F812F5F3F4F3F832E8354
:102AB000812F902FDF91CF911F910F9108956091F9
:102AC000CB037091CC030E942D1508950F931F9393
:102AD000CF93DF93E091CB03F091CC03238121FFCF
:102AE0001BC0EC0100E010E089916091CB03709174
:102AF000CC03DB011896ED91FC911997882331F0F6
:102B00000995892B89F30FEF1FEFEECF8AE0099526
:102B1000892B11F4C80102C08FEF9FEFDF91CF9195
:102B20001F910F910895FA01AA27283051F1203101
:102B300081F1E8946F936E7F6E5F7F4F8F4F9F4F51
:102B4000AF4FB1E03ED0B4E03CD0670F781F891F93
:102B50009A1FA11D680F791F8A1F911DA11D6A0F61
:102B6000711D811D911DA11D20D009F468943F9114
:102B70002AE0269F11243019305D3193DEF6CF0113
:102B80000895462F4770405D4193B3E00FD0C9F7D9
:102B9000F6CF462F4F70405D4A3318F0495D31FD46
:102BA0004052419302D0A9F7EACFB4E0A695979599
:102BB000879577956795BA95C9F70097610571056F
:102BC00008959B01AC010A2E0694579547953795B9
:102BD0002795BA95C9F7620F731F841F951FA01D13
:062BE0000895F894FFCFF8
:102BE60000E10000000000070003000000000600EE
:102BF60003000000000500030000000004000300BD
:102C060000000001000300000000000003000000B7
:102C16000004040100000000040801000000000494
:102C2600020100000002040102000000000410017D
:102C3600000000080340020000000E0480020000AD
:102C46000000054001000000000210010000000322
:102C5600022002000000040240020000000102807F
:102C660002000000000440010000000B0380020087
:102C76000000000000002300260029002C002F0081
:102C860000000000250028002B002E003100000067
:102C96000000240027002A002D003000000000025A
:102CA60000000000310A00000000000000020000E1
:102CB6000000B30B0000000000000001000000004F
:102CC6001B0B00000000080B0002020201000904B1
:102CD6000000010202000005240010010524010184
:102CE60001042402060524060001070581031000DD
:102CF6004009040100020A00000007050202400024
:102D0600000705830240000009024B000201008013
:0A2D1600FA566F7220666F722100FA
:00000001FF
