:100000000C9424010C9441010C9441010C94410185
:100010000C9441010C9441010C9441010C94410158
:100020000C9441010C9441010C94FA020C94580276
:100030000C9441010C9441010C9441010C94410138
:100040000C9441010C9441010C9441010C94410128
:100050000C9441010C9441010C9441010C94430116
:100060000C9441010C94C7060C9493060C94410126
:100070000C9441010C9441010C9441010C944101F8
:100080000C9441010C9441010C9441010C944101E8
:100090000C9441010C9441010C9441010C944101D8
:1000A0000C9441010C9441010C944101B503B90336
:1000B000BD03C103E203E203E203C703E203E20379
:1000C000CD03E203E203D80306040A040E0412047B
:1000D0002904290429041804290429041E042904D4
:1000E00029042404460548054A0553056A056A059E
:1000F0006A055C056A056A0565056A056A0568059D
:100100006E616E00696E660012010002020000401E
:1001100041234180000101020001120100020000A0
:1001200000404123418000010102000141726475D9
:10013000696E6F2059756E0055534220494F204219
:100140004F415244000403090400C1808100407AF9
:1001500010F35A00A0724E18090010A5D4E8000050
:10016000E87648170000E40B54020000CA9A3B00EE
:100170000000E1F505000080969800000040420F65
:10018000000000A08601000000102700000000E829
:1001900003000000006400000000000A00000000EE
:1001A000000100000000002C76D888DC674F08238F
:1001B000DFC1DFAE59E1B1B796E5E3E453C63AE6F5
:1001C00051997696E8E6C28426EB898C9B62ED40D5
:1001D0007C6FFCEFBC9C9F40F2BAA56FA5F4900524
:1001E0005A2AF75C936B6CF9676DC11BFCE0E40D58
:1001F00047FEF520E6B500D0ED902E03009435774C
:10020000050080841E080000204E0A000000C80C73
:10021000333333330F986E12831141EF8D211489DC
:100220003BE65516CFFEE6DB18D1844B381BF77C36
:100230001D901DA4BBE424203284725E228100C97B
:10024000F124ECA1E53D270011241FBECFEFDAE039
:10025000DEBFCDBF12E0A0E0B1E0E0EBFDE102C007
:1002600005900D92A432B107D9F713E0A4E2B2E0F1
:1002700001C01D92A334B107E1F70E94F10C0C9468
:10028000D60E0C9400001F920F920FB60F921124FD
:100290002F933F938F939F93AF93BF9380912402AB
:1002A00090912502A0912602B091270230912C0254
:1002B00023E0230F2D3720F40196A11DB11D05C0A9
:1002C00026E8230F0296A11DB11D20932C028093D6
:1002D000240290932502A0932602B09327028091D6
:1002E000280290912902A0912A02B0912B02019636
:1002F000A11DB11D8093280290932902A0932A0288
:10030000B0932B02BF91AF919F918F913F912F910D
:100310000F900FBE0F901F9018952FB7F894609113
:1003200024027091250280912602909127022FBF0E
:1003300008950F931F932FB7F894809128029091FE
:100340002902A0912A02B0912B0206B5A89B03C0F6
:100350000196A11DB11D2FBF6627782F892F9A2FD7
:10036000112707FD1095212F312F600F711F821F5C
:10037000931F32E0660F771F881F991F3A95D1F7B8
:100380001F910F910895CF92DF92EF92FF92CF933A
:10039000DF936B017C010E949901EB01C114D10430
:1003A000E104F10479F00E9499016C1B7D0B683E19
:1003B0007340A4F381E0C81AD108E108F108C851DC
:1003C000DC4FECCFDF91CF91FF90EF90DF90CF909B
:1003D00008956150710981099109611571058105BF
:1003E000910571F0DC01CB0142E0880F991FAA1F33
:1003F000BB1F4A95D1F70297A109B1090197F1F7FF
:100400000895CF93DF93EC010E947E04E981EE0F03
:10041000FF0BEE56FE4F0190F081E02D4A81808166
:100420008423E9F3242F332727FD30952095309539
:100430008081992787FD909582239323892BC1F38F
:1004400020E030E08081842319F42F5F3F4FFACF02
:1004500045E1429FC001439F900D1124AA2797FDBB
:10046000A095BA2F24E0B695A795979587952A95DC
:10047000D1F7DF91CF9108951092340281E08093FB
:10048000D70080EA8093D80082E189BD09B400FEDC
:10049000FDCF61E070E080E090E00E94C30180E960
:1004A0008093D8008CE08093E2001092E0000895E1
:1004B0001F920F920FB60F9211240F931F932F9339
:1004C0003F934F935F936F937F938F939F93AF93DC
:1004D000BF93EF93FF93CF93DF93CDB7DEB728970A
:1004E000DEBFCDBF1092E9008091E800FE01319699
:1004F0009E01275F3F4F8F01E217F30721F08091A4
:10050000F1008193F9CF82EF8093E800898187FF22
:1005100005C08091E80080FFFCCF03C08EEF809380
:10052000E8000E94BA088981982F907691F52A8177
:100530002630D1F02CF4222349F0253061F034C06C
:100540002830B1F00CF12930B9F02EC01092F10032
:100550001092F10029C08091E80080FFFCCF8B81D0
:1005600080688093E30020C0C8010E94E5051CC09C
:1005700081E08093F10018C0837031F40E94780507
:100580008B818093340210C083E090E00E94AA081F
:100590000BC08F8198850E940D082D813E81232BF1
:1005A00099F7C8010E9449030E94B508892B21F0E0
:1005B00081E28093EB0003C08EEF8093E8002896E1
:1005C0000FB6F894DEBF0FBECDBFDF91CF91FF9184
:1005D000EF91BF91AF919F918F917F916F915F91BB
:1005E0004F913F912F911F910F910F900FBE0F9040
:1005F0001F9018951F920F920FB60F9211242F93F0
:100600003F934F935F936F937F938F939F93AF939A
:10061000BF93CF93EF93FF93C091E1001092E1005D
:10062000C3FF0AC042E360E080E00E946E051092C2
:10063000340288E08093F000C2FF19C083E00E947A
:10064000FD0682E08093E9000E94BF08C091F2009D
:100650000E94C208CC2359F082E090E00E94590722
:10066000682F89EB92E00E942D09C150F3CFFF91D2
:10067000EF91CF91BF91AF919F918F917F916F91AA
:100680005F914F913F912F910F900FBE0F901F9050
:100690001895CF93DF93EC010E94BA0888818132CC
:1006A00009F03BC08981803241F467E070E080E06E
:1006B00091E0DF91CF910C949408823271F58A8198
:1006C000809305018091000190910101803B94404D
:1006D00051F58091050180FD12C087E797E790935F
:1006E0000108809300082BE088E190E00FB6F894B1
:1006F000A895809360000FBE2093600014C088E12D
:100700000FB6F89480936000109260000FBEA89519
:10071000109201081092000806C084E090E0DF917A
:10072000CF910C94AA08DF91CF910895DC01139624
:100730008D919C911497029709F04AC015968D915E
:100740009C911697029709F443C04C91552747FD99
:100750005095652F752F415051094E30510590F538
:100760004A5A5F4FFA010C944B0D84B5806884BDE2
:1007700029C085B5806285BD25C0809180008068D4
:1007800003C0809180008062809380001BC08091B4
:10079000900080688093900015C08091C0008068B0
:1007A0008093C0008091C0008B7F8093C0000AC0FE
:1007B0008091C20088608093C2008091C2008B7FCC
:1007C0008093C20082E090E016969C938E931597DA
:1007D0000895DC0113968D919C9114970297E9F589
:1007E00015968D919C911697892BB9F14C915527AF
:1007F00047FD5095652F752F415051094E305105D9
:1008000040F54C595F4FFA010C944B0D84B58F772E
:1008100084BD1FC085B58F7D85BD1BC080918000C4
:100820008F7703C0809180008F7D8093800011C0FE
:10083000809190008F77809390000BC08091C000D2
:100840008F778093C00005C08091C200877F80931E
:10085000C20016961C921E9215970895EF92FF9271
:100860000F931F93CF93DF93EC018B819C810197B2
:10087000029780F58D819E81892B61F58981880F92
:10088000990BFC01E255FE4F00811181FC01E056FD
:10089000FE4FE080F18061110EC00E94BF08F80198
:1008A00090812A81209592239083F70190812A815B
:1008B0002095922308C0613069F40E94BF08F801B6
:1008C00090812A81922B90830E94C20881E090E05F
:1008D0009E838D83DF91CF911F910F91FF90EF90B9
:1008E0000895FC01838194810197029730F48581FA
:1008F0009681892B11F0168215820895CF93DF938C
:10090000EC012B813C81C90101970297F8F48D819C
:100910009E812230310539F48230910521F4CE01D7
:100920000E94E90306C0892B21F460E0CE010E94F9
:100930002E04E981EE0FFF0BEE56FE4F0190F08181
:10094000E02D90818A81982381E009F080E0DF9199
:10095000CF910895FF920F931F93CF93DF93EC01F4
:10096000F62E2B813C81C9010197029760F58D819C
:100970009E812230310539F48230910521F4CE0177
:100980000E94E90306C0892B21F461E0CE010E9498
:100990002E04E981EE0FFF0BE056FE4F008111811E
:1009A0000E94BF082A81F8019081F11003C02095B0
:1009B000922301C0922B9083DF91CF911F910F91D1
:1009C000FF900C94C208DF91CF911F910F91FF907F
:1009D0000895FC0183819481039769F580917B00E0
:1009E000918193FB222720F930E045E0220F331F4D
:1009F0004A95E1F78F7D822B80937B008181877000
:100A0000806480937C0080917A00806480937A0077
:100A100080917A0086FDFCCF20917800809179004A
:100A2000992787FD9095982F8827332727FD3095A4
:100A3000822B932B089580E090E008951F93CF932D
:100A4000DF93EC01162F8B819C81029709F042C045
:100A50008D819E81892B21F461E0CE010E942E04BC
:100A60008D819E81019719F4CE010E9496038881A1
:100A7000992787FD9095A92FB92FFC013197EE306A
:100A8000F10540F5EE58FF4F0C944B0D17BD22C0F9
:100A900018BD20C0612F772767FD7095709389007E
:100AA0006093880017C0612F772767FD709570935A
:100AB0008B0060938A000EC0612F772767FD7095C9
:100AC000709399006093980005C01093CF0002C006
:100AD0001093D200DF91CF911F9108958093E90088
:100AE00081E08093EB006093EC004093ED0008956B
:100AF000E9E4F1E081E091E026E33196843059F0B9
:100B000034918093E9009093EB003093EC002093B4
:100B1000ED008F5FF2CF8EE78093EA001092EA003B
:100B200008950F931F93CF93DF93EC01062F862F29
:100B3000880F8E5F0E94820883E00E94820810E086
:100B400010178CF4FE01E10FF11D17FDFA95849149
:100B50000E94820880E00E9482080E94B508892BCA
:100B600011F41F5FEDCFDF91CF911F910F91089589
:100B7000CF93DF93CDB7DEB729970FB6F894DEBFDA
:100B80000FBECDBF29E0EAE1F2E0DE01119601904F
:100B90000D922A95E1F70E940D0849E050E0BE0150
:100BA0006F5F7F4F80E00E94180842E450E068EDDC
:100BB00071E080E00E94180829960FB6F894DEBF15
:100BC0000FBECDBFDF91CF910895CF93DF93EC019E
:100BD0002B818E819F81223021F4DF91CF910C9463
:100BE000B8050E940D082B81213069F48E819F8108
:100BF000089711F420932D0280912D0281111CC0C1
:100C00006AE171E01EC02330F9F48A818823B9F0CB
:100C1000823021F46CE088E391E005C0813039F442
:100C20006BE08CE291E0DF91CF910C94910583E031
:100C300090E00E94AA0808C068E071E002C065E484
:100C400071E06115710531F483E090E00E94AA081B
:100C500060E070E0FB014491552747FD509580E826
:100C6000DF91CF910C9418081092CD0087E6809305
:100C7000CC00E8ECF0E080818D7F808388E1809378
:100C8000C900EAECF0E08081806C8083109236022B
:100C9000109278021092350210927702089585E33F
:100CA00092E00C946E0985E392E00E946E0988231D
:100CB00021F085E392E00C945B0980E00895682FB1
:100CC00087E792E00E942D09E9ECF0E080818062E4
:100CD0008083E8ECF0E08081806480830895AF92A7
:100CE000BF92CF92DF92EF92FF920F931F93CF9319
:100CF000DF93CDB7DEB72E970FB6F894DEBF0FBEE9
:100D0000CDBF2E960FB6F894DEBF0FBECDBFDF91DC
:100D1000CF911F910F91FF90EF90DF90CF90BF90F8
:100D2000AF900C945F061F920F920FB60F92112492
:100D30002F933F934F935F936F937F938F939F93E3
:100D4000AF93BF93EF93FF9387E792E00E946E0902
:100D5000811106C08091C9008F7D8093C90006C0B3
:100D600087E792E00E945B098093CE00FF91EF91AC
:100D7000BF91AF919F918F917F916F915F914F91B3
:100D80003F912F910F900FBE0F901F9018951F92BB
:100D90000F920FB60F9211242F933F934F935F93AF
:100DA0006F937F938F939F93AF93BF93EF93FF9333
:100DB0008091C80082FD06C06091CE0085E392E07C
:100DC0000E942D09FF91EF91BF91AF919F918F915B
:100DD0007F916F915F914F913F912F910F900FBE37
:100DE0000F901F9018958091E8008570E1F3909125
:100DF000E80081E092FD80E008958093E900809111
:100E0000F20018161CF48AE38093E8000895CF934B
:100E10008093E9000E94BF089091E800C091F20021
:100E20000E94C20880E48C1BCF910895FF920F931B
:100E30001F93CF93DF93F82E8B01EA010E94BA082B
:100E400080913402811107C082E090E00E94AA08DC
:100E500080E090E028C0F092E9000E94BF08209155
:100E6000F200332727FD30952C173D072CF4C09155
:100E7000F200DD27C7FDD095F80198012C0F3D1F2A
:100E8000E217F30721F09091F1009193F9CF2097A9
:100E900039F09091F200911103C09BE69093E80025
:100EA0000E94C208CE01DF91CF911F910F91FF9058
:100EB0000895CF93DF931F92CDB7DEB7198241E03B
:100EC00050E0BE016F5F7F4F0E94160789810F902F
:100ED000DF91CF9108958F929F92AF92BF92CF9260
:100EE000DF92EF92FF920F931F93CF93DF93C82E61
:100EF000EB017A010E94BA0880913402882361F0E4
:100F000087018AEFB82E8C2D8072A82E9C2D9074AC
:100F1000992E9AE3892E15C081E090E00E94AA08DC
:100F200080E090E04AC08C2D0E940707D82E8111E6
:100F30000CC0BA9489F361E070E080E090E00E9418
:100F4000C301101611067CF337C0282F332727FD65
:100F50003095021713070CF4D02E0D191109D7FC88
:100F60001395C092E9000E94BF08AA2039F0DA94D4
:100F70009FEFD916B1F01092F100F9CFFE019D2D2F
:100F8000C7FE07C0915058F024912093F10031968C
:100F9000F9CF915020F021912093F100FACFCD0D9F
:100FA000D11D9091E800E114F10419F491108092A0
:100FB000E8000E94C208C5CFC701DF91CF911F9101
:100FC0000F91FF90EF90DF90CF90BF90AF909F90E8
:100FD0008F900895CF93DF931F92CDB7DEB78983AB
:100FE000809105011816ACF441E050E0BE016F5F3E
:100FF0007F4F83E00E946B0789818A3051F48DE036
:10100000898341E050E0BE016F5F7F4F83E00E9423
:101010006B070F90DF91CF9108951092E900109225
:10102000310210923002909333028093320208957D
:10103000AF92BF92CF92DF92EF92FF920F931F93E6
:10104000CF93DF9300D0CDB7DEB7D82EF42EE52EA8
:1010500069837A830E94BA081092E9000F2D1E2D31
:101060006981A62E7A81B72E2EEFC22E01151105A9
:10107000D1F16091300270913102209132023091B1
:101080003302621773077CF50E94F306811107C0D3
:1010900082E090E00E94AA0880E090E026C0F5017E
:1010A000D7FE02C0849101C080818093F10020911D
:1010B0003002309131022F5F3F4F2F733327232BA4
:1010C00011F4C092E80020913002309131022F5F7C
:1010D0003F4F309331022093300201501109FFEF4E
:1010E000AF1ABF0AC3CF8F2D9E2D0F900F90DF91A7
:1010F000CF911F910F91FF90EF90DF90CF90BF9015
:10110000AF900895CF93DF931F92CDB7DEB7898359
:1011100041E050E0BE016F5F7F4F80E00E94180801
:101120000F90DF91CF9108951092E9002091E8008F
:1011300022FFFCCFFC01680F791FE617F70721F0AB
:101140008091F1008193F9CF8BEF8093E8008FEFCE
:101150009FEF089520912E0230912F02232B21F42E
:1011600090932F0280932E02089580912E029091E9
:101170002F02089510922F0210922E0208958FB719
:10118000F89408958FBF0895789484B5826084BDE3
:1011900084B5816084BD85B5826085BD85B581607B
:1011A00085BDEEE6F0E0808181608083E1E8F0E0DB
:1011B0001082808182608083808181608083E0E80A
:1011C000F0E0808181608083E1EBF0E080818460E9
:1011D0008083E0EBF0E0808181608083E1E9F0E0F2
:1011E000808182608083808181608083E0E9F0E09B
:1011F000808181608083E1ECF0E080818460808385
:10120000808182608083808181608083E3ECF0E074
:10121000808181608083E0ECF0E080818260808367
:10122000E2ECF0E0808181608083EAE7F0E0808199
:1012300084608083808182608083808181608083FC
:1012400080818068808308951092FC021092BA0217
:101250001092FB021092B9020895FC0180818F5F09
:10126000803411F0808301C010828081E80FF11D6D
:1012700087FDFA9562830895EF92FF920F931F9373
:10128000CF93DF931F92CDB7DEB78C017B01460F62
:101290004E1549F0F70161917F01C80149830E9411
:1012A0002D094981F5CF0F90DF91CF911F910F91BB
:1012B000FF90EF900895FC0181819081891769F07A
:1012C0008F5F803411F0818301C011828181E80F2A
:1012D000F11D87FDFA95828108950895FC0181E052
:1012E00021819081291301C080E00895A3E1B0E03D
:1012F000ECE7F9E00C94140D7C011B016A01FC0180
:1013000017821682838181FF66C3BE016F5F7F4FA4
:101310004B01F7019381F10193FD859193FF819139
:101320001F01882309F453C3853239F493FD859155
:1013300093FF81911F01853239F4B70190E00E943B
:101340003F0E56016501E5CF10E0512C20E0203220
:10135000A0F48B3269F030F4803259F0833269F4B2
:1013600020612CC08D3239F0803339F4216026C0E1
:101370002260246023C0286021C027FD27C030EDF3
:10138000380F3A3078F426FF06C0FAE01F9F300D80
:101390001124132F13C06AE0569E300D1124532ED2
:1013A00020620CC08E3221F426FD11C3206406C0D9
:1013B0008C3611F4206802C0883641F4F10193FDA7
:1013C000859193FF81911F018111C1CF9BEB980FF4
:1013D000933018F42061805E06C09BE9980F93302B
:1013E00008F0AAC12F7E26FF16E02F73722E8536D5
:1013F00021F4F22FF0647F2E08C0863621F4622F8C
:101400006068762E02C01111115077FE07C01C33A0
:1014100048F444244394410E27E00BC0183030F4C4
:10142000212F06C027E04CE3442E03C027E017E03D
:10143000412C560174E0A70EB11CF6016081718148
:1014400082819381042DA4010E94510D6C010981B8
:1014500000FF02C003FF06C071FC07C072FC08C099
:10146000612C08C03DE2632E05C02BE2622E02C053
:1014700090E2692E802F8C7099F1662011F084E043
:1014800001C083E0851510F0512C0BC0581A73FC75
:1014900008C0B70180E290E00E943F0E5A94C9F75D
:1014A000F3CF662029F0B701862D90E00E943F0E11
:1014B00003FD03C004E011E002C000E011E0F72DDD
:1014C000F0717F2EF8018491882309F476C271109F
:1014D0008052B70190E00E943F0E0F5F1F4FF2CF86
:1014E00077FE0FC04C0C04FF04C08A81813309F4DD
:1014F0004A94141474F5F8E0F41578F588E0482E51
:101500002CC076FC2AC0812F90E08C159D059CF0A4
:101510006CEFC6166FEFD60674F0772D7068772ED5
:101520000AC0E2E0F0E0EC0FFD1FE10FF11D808149
:10153000803319F411501111F4CF77FE0EC04424FA
:101540004394410E812F90E0C816D9062CF41C1943
:1015500004C04424439401C010E077FE07C01C146B
:101560001D043CF496012F5F3F4F05C025E030E09D
:1015700002C021E030E0662011F02F5F3F4F1123C1
:1015800031F0412F50E04F5F5F4F240F351F452D45
:1015900050E02417350714F4521A01C0512C872D3E
:1015A000897049F4552039F0B70180E290E00E943B
:1015B0003F0E5A94F7CF662029F0B701862D90E0B0
:1015C0000E943F0E73FC09C0552039F0B70180E33B
:1015D00090E00E943F0E5A94F7CF77FE5FC09C2D9B
:1015E0008D2DD7FE02C090E080E0692E782E40E07D
:1015F00050E0C601841991099D878C8796012619B0
:101600003709280D391D812F90E0EE27FF27E81BB1
:10161000F90BFF87EE87FFEF6F167F0669F4B701BE
:101620008EE290E02B8B3A8B488B598B0E943F0EB9
:10163000598948893A892B89C614D70454F06C8596
:101640007D85661577052CF4F901E40FF51F81817E
:1016500001C080E371E0671A71084F5F5F4FEE854C
:10166000FF856E167F066CF0B70190E02B8B3A8BEE
:10167000488B598B0E943F0E2B893A89488959899A
:10168000CACF6C147D0439F49A81963318F49533DB
:1016900011F404FF81E3B70190E04BC08A818133EC
:1016A00009F00F7EB70190E00E943F0E111105C0B6
:1016B00074FE18C085E490E017C0B7018EE290E098
:1016C0000E943F0E82E066246394680EF401E80FE6
:1016D000F11D8081B70190E00E943F0E115041F34F
:1016E000862DF1CF85E690E0B7010E943F0ED7FC32
:1016F00005C0C114D10439F404FF05C0D194C194CC
:10170000D1088DE201C08BE2B70190E00E943F0E4C
:1017100080E36AE0C616D1042CF08F5FFAE0CF1A9E
:10172000D108F7CFB70190E00E943F0EB701C60184
:10173000C0960E943F0E41C1833631F0833779F065
:10174000833509F058C021C0560172E0A70EB11CC4
:10175000F6018081898301E010E0640114C0560124
:10176000F2E0AF0EB11CF601C080D18026FF03C0AD
:10177000612F70E002C06FEF7FEFC6012B8B0E94DC
:10178000340E8C012B892F7715C05601F2E0AF0E75
:10179000B11CF601C080D18026FF03C0612F70E02C
:1017A00002C06FEF7FEFC6012B8B0E94290E8C01C8
:1017B0002B892068722E23FD1AC0852D90E0081712
:1017C0001907A8F4B70180E290E00E943F0E5A94F6
:1017D000F4CFF60177FC859177FE81916F01B70117
:1017E00090E00E943F0E51105A94015011090115CA
:1017F000110579F7E2C0843611F0893651F55601AA
:1018000027FF09C0F4E0AF0EB11CF60160817181C1
:10181000828193810AC0F2E0AF0EB11CF6016081B3
:101820007181882777FD8095982F022F0F7697FF7B
:1018300008C090958095709561957F4F8F4F9F4F11
:1018400000682AE030E0A4010E94780EC82EC81873
:101850003EC0022F853721F40F7E2AE030E01DC004
:10186000097F8F3691F018F4883559F0B0C0803771
:1018700019F0883711F0ABC0006104FF09C00460A3
:1018800007C024FF08C0066006C028E030E005C09D
:1018900020E130E002C020E132E0560107FF09C03C
:1018A000F4E0AF0EB11CF6016081718182819381F9
:1018B00008C0F2E0AF0EB11CF6016081718180E0DA
:1018C00090E0A4010E94780EC82EC8180F7706FF7A
:1018D0000BC0202F2E7FC11650F404FF0AC002FD5A
:1018E00008C0202F2E7E05C0DC2C202F03C0DC2C4E
:1018F00001C0D12E24FF0DC0FE01EC0DF11D808131
:10190000803311F4297E09C022FF06C0D394D394FA
:1019100004C0822F867809F0D39423FD13C020FFE2
:1019200006C01C2DD51418F4150D1D19D52CD51471
:1019300068F4B70180E290E02B8B0E943F0ED394B5
:101940002B89F5CFD51410F45D1801C0512C24FF5C
:1019500012C0B70180E390E02B8B0E943F0E2B89D1
:1019600022FF17C021FF03C088E590E002C088E78E
:1019700090E0B7010CC0822F867859F021FD02C09B
:1019800080E201C08BE227FD8DE2B70190E00E946A
:101990003F0EC11638F4B70180E390E00E943F0E7D
:1019A0001150F7CFCA94F401EC0DF11D8081B701FD
:1019B00090E00E943F0EC110F5CF552009F4C2CC33
:1019C000B70180E290E00E943F0E5A94F6CFF701F3
:1019D0008681978102C08FEF9FEF6396E2E10C94BE
:1019E000300D0E94C4080E943C020E9434060E94EE
:1019F00024098CEB91E09093400380933F0389EBA3
:101A000092E00E946E098823D1F389EB92E00E9454
:101A10005B09992787FD90950E94710E61E08DE723
:101A200091E00E94AA04EBCF2F923F924F925F92D7
:101A30006F927F928F929F92AF92BF92CF92DF92DE
:101A4000EF92FF920F931F93CF93DF93CDB7DEB743
:101A5000CA1BDB0B0FB6F894DEBF0FBECDBF0994D7
:101A60002A88398848885F846E847D848C849B842E
:101A7000AA84B984C884DF80EE80FD800C811B813C
:101A8000AA81B981CE0FD11D0FB6F894DEBF0FBE6B
:101A9000CDBFED010895EE0FFF1F0590F491E02DED
:101AA0000994283008F027E03327DA01990F311D17
:101AB00087FD916000966105710539F432602E5FF3
:101AC0003D9330E32A95E1F708959F3F30F0803849
:101AD0007105610509F03C5F3C5F3D93913008F072
:101AE0008068911DDF93CF931F930F93FF92EF9226
:101AF000192F987F9695E92F96959695E90FFF27D0
:101B0000E955FE4F99273327EE24FF24A701E7016B
:101B100005900894079428F4360FE71EF81E491F15
:101B2000511D660F771F881F991F0694A1F7059016
:101B3000079428F4E70EF81E491F561FC11D770FA2
:101B4000881F991F661F0694A1F70590079428F433
:101B5000F80E491F561FC71FD11D880F991F661FFA
:101B6000771F0694A1F70590079420F4490F561F9C
:101B7000C71FD81F990F661F771F881F0694A9F7E4
:101B800084911095177041F0D695C7955795479554
:101B9000F794E7941A95C1F7EDE4F1E06894159095
:101BA000159135916591959105907FE27395E118B6
:101BB000F10A430B560BC90BD009C0F7E10CF11E1B
:101BC000431F561FC91FD01D7EF4703311F48A9530
:101BD000E6CFE894015030F0080F0AF4002702170E
:101BE00008F4202F2395022F7A3328F079E37D9390
:101BF0002A95E9F710C07D932A9589F60694979562
:101C00006795379517951794E118F10A430B560B12
:101C1000C90BD00998F023957E9173957A3308F01B
:101C200070E37C932013B8F77E9170617D9330F060
:101C3000839571E37D9370E32A95E1F71124EF908A
:101C4000FF900F911F91CF91DF91992787FD90957C
:101C50000895FC010590615070400110D8F78095FF
:101C600090958E0F9F1F0895FC0161507040019068
:101C70000110D8F7809590958E0F9F1F08950F93B0
:101C80001F93CF93DF93182F092FEB018B8181FDD9
:101C900003C08FEF9FEF20C082FF10C04E815F8195
:101CA0002C813D81421753077CF4E881F9819F0123
:101CB0002F5F3F4F39832883108306C0E885F9855D
:101CC000812F0995892B29F72E813F812F5F3F4F67
:101CD0003F832E83812F902FDF91CF911F910F9102
:101CE000089560913F03709140030E943F0E089554
:101CF000FA01AA27283051F1203181F1E8946F933D
:101D00006E7F6E5F7F4F8F4F9F4FAF4FB1E03ED0E2
:101D1000B4E03CD0670F781F891F9A1FA11D680F80
:101D2000791F8A1F911DA11D6A0F711D811D911DB3
:101D3000A11D20D009F468943F912AE0269F112428
:101D40003019305D3193DEF6CF010895462F47708C
:101D5000405D4193B3E00FD0C9F7F6CF462F4F70E7
:101D6000405D4A3318F0495D31FD4052419302D045
:101D7000A9F7EACFB4E0A6959795879577956795EB
:101D8000BA95C9F700976105710508959B01AC01EB
:101D90000A2E06945795479537952795BA95C9F712
:101DA000620F731F841F951FA01D0895F894FFCF25
:101DB00000E1000000000007000300000000060032
:101DC0000300000000050003000000000400030001
:101DD00000000001000300000000000003000000FC
:101DE00000040401000000000408010000000004D9
:101DF00002010000000204010200000000041001C2
:101E0000000000080340020000000E0480020000F1
:101E10000000054001000000000210010000000366
:101E200002200200000004024002000000010280C3
:101E300002000000000440010000000B03800200CB
:101E40000000000000002300260029002C002F00C5
:101E500000000000250028002B002E0031000000AB
:101E60000000240027002A002D003000000000029E
:101E700000000000EA07000000000000000200006F
:101E800000006F0600000000080B000202020100C3
:101E900009040000010202000005240010010524CD
:101EA000010101042402060524060001070581033F
:101EB00010004009040100020A00000007050202A8
:101EC0004000000705830240000009024B000201A8
:041ED0000080FA0094
:00000001FF
