:100000000C9424010C9441010C9441010C94410185
:100010000C9441010C9441010C9441010C94410158
:100020000C9441010C9441010C9454040C94B203BF
:100030000C9441010C9441010C9441010C94410138
:100040000C9441010C9441010C9441010C94410128
:100050000C9441010C9441010C9441010C94430116
:100060000C9441010C947A0A0C94460A0C944101B8
:100070000C9441010C9441010C9441010C944101F8
:100080000C9441010C9441010C9441010C944101E8
:100090000C948F080C9441010C9441010C94410183
:1000A0000C9441010C9441010C9441010E05120580
:1000B00016051A053B053B053B0520053B053B05A1
:1000C00026053B053B0531055F05630567056B05A7
:1000D0008205820582057105820582057705820504
:1000E00082057D059E06A006A206AB06C206C206D4
:1000F000C206B406C206C206BD06C206C206C006D5
:100100006E616E00696E660012010002020000401E
:1001100041234180000101020001120100020000A0
:1001200000404123418000010102000141726475D9
:10013000696E6F2059756E0055534220494F204219
:100140004F415244000403090400C1808100407AF9
:1001500010F35A00A0724E18090010A5D4E8000050
:10016000E87648170000E40B54020000CA9A3B00EE
:100170000000E1F505000080969800000040420F65
:10018000000000A08601000000102700000000E829
:1001900003000000006400000000000A00000000EE
:1001A000000100000000002C76D888DC674F08238F
:1001B000DFC1DFAE59E1B1B796E5E3E453C63AE6F5
:1001C00051997696E8E6C28426EB898C9B62ED40D5
:1001D0007C6FFCEFBC9C9F40F2BAA56FA5F4900524
:1001E0005A2AF75C936B6CF9676DC11BFCE0E40D58
:1001F00047FEF520E6B500D0ED902E03009435774C
:10020000050080841E080000204E0A000000C80C73
:10021000333333330F986E12831141EF8D211489DC
:100220003BE65516CFFEE6DB18D1844B381BF77C36
:100230001D901DA4BBE424203284725E228100C97B
:10024000F124ECA1E53D270011241FBECFEFDAE039
:10025000DEBFCDBF12E0A0E0B1E0E8E8F9E202C005
:1002600005900D92A233B107D9F713E0A2E3B2E0F3
:1002700001C01D92A538B107E1F70E94A3100C94AC
:10028000C2140C9400001F920F920FB60F9211240B
:100290002F933F934F935F936F937F938F939F938E
:1002A000AF93EF93FF93209132023091330240914C
:1002B000340250913502609136027091370280917C
:1002C000380290913902F0914202E3E0EF0FED37EE
:1002D00010F4A1E003C0E6E8EF0FA2E00E941C11B9
:1002E000E09342022093320230933302409334026F
:1002F0005093350260933602709337028093380230
:100300009093390220913A0230913B0240913C0295
:1003100050913D0260913E0270913F0280914002F7
:1003200090914102A1E00E941C1120933A02309367
:100330003B0240933C0250933D0260933E02709317
:100340003F028093400290934102FF91EF91AF9161
:100350009F918F917F916F915F914F913F912F91DD
:100360000F900FBE0F901F901895EFB7F894209143
:100370003202309133024091340250913502609143
:100380003602709137028091380290913902EFBFA6
:100390000895AF92BF92CF92DF92EF92FF920F93A8
:1003A0001F93EFB7F89420913A0230913B024091AD
:1003B0003C0250913D0260913E0270913F0280915B
:1003C000400290914102A6B4A89B03C0A1E00E9404
:1003D0001C11EFBF08E00E94FA101A2D110F110B2B
:1003E000B12EC12ED12EE12EF12E012F0E9413111C
:1003F00002E00E94FA101F910F91FF90EF90DF90A2
:10040000CF90BF90AF9008952F923F924F925F92FE
:100410006F927F928F929F92AF92BF92CF92DF9214
:10042000EF92FF920F931F93CF93DF9319012A014D
:100430003B018C010E94C901C22FD32F9101A2015F
:10044000B301C801A0E00E942811C1F00E94C901B7
:1004500049018C1A9D0A88EE881683E0980674F389
:100460009101A201B301C801AFEF0E941C11190153
:100470002A013B018C01C851DC4FE0CFDF91CF91C5
:100480001F910F91FF90EF90DF90CF90BF90AF90B2
:100490009F908F907F906F905F904F903F902F90A4
:1004A00008958F929F92AF92BF92CF92DF92EF9278
:1004B000FF920F93CF93DF93AFEF0E941C11A0E048
:1004C0000E94281179F002E00E94FA10AEEF0E941B
:1004D0001C115A016B017C01C901D501E601F7012C
:1004E0000197F1F7DF91CF910F91FF90EF90DF909F
:1004F000CF90BF90AF909F908F900895AF92BF9292
:10050000CF92DF92EF92FF920F931F93CF93DF93DF
:10051000CDB7DEB762970FB6F894DEBF0FBECDBF82
:100520006C01B9015A01298B7A8B0E94D70597017A
:10053000A80169897A89C5010E943B122AED3BE333
:100540004FE952E40E94991120E030E040E851E484
:100550000E94DA120E94061229833A834B835C833D
:100560006D837E838F839887D6011196EC911197C6
:10057000EE0FFF0BEE56FE4F0190F081E02D12962C
:100580001C9180818123B9F529813A814B815C815D
:100590006D817E818F819885AFEF0E941C11298328
:1005A0003A834B835C836D837E838F839887A0E03F
:1005B0000E94281131F720E030E040E050E060E098
:1005C00070E080E090E06FC029813A814B815C81CE
:1005D0006D817E818F819885AFEF0E941C112983E8
:1005E0003A834B835C836D837E838F839887A0E0FF
:1005F0000E94281101F38081812331F719861A8620
:100600001B861C861D861E861F86188A8081812374
:1006100061F529813A814B815C816D817E818F8179
:100620009885AFEF0E941C1129833A834B835C832A
:100630006D837E838F839887A0E00E94281109F440
:10064000BACF29853A854B855C856D857E858F85FA
:100650009889A1E00E941C1129873A874B875C8703
:100660006D877E878F87988BD1CF29853A854B857B
:100670005C856D857E858F8598890E943B1228E375
:100680003BE24CE852E40E94DA1220E030E040E81D
:1006900051E40E94351120E030E040E85DE30E9423
:1006A000DA120E94061262960FB6F894DEBF0FBEF1
:1006B000CDBFDF91CF911F910F91FF90EF90DF9011
:1006C000CF90BF90AF900895CF93DF93EA010E943F
:1006D0000306FE0138979F2F990F990B9F01492F11
:1006E000592F692F792F892FDF91CF910C945102C7
:1006F000CF93DF9300D0CDB7DEB75A8349830E94F2
:1007000003064981242F3A81932F990F990B492F82
:10071000592F692F792F892F0F900F90DF91CF914B
:100720000C9404021092B80281E08093D70080EA12
:100730008093D80082E189BD09B400FEFDCF21E09D
:1007400030E040E050E060E070E080E090E00E9447
:10075000040280E98093D8008CE08093E20010923C
:10076000E00008951F920F920FB60F9211240F937D
:100770001F932F933F934F935F936F937F938F9329
:100780009F93AF93BF93EF93FF93CF93DF93CDB737
:10079000DEB72897DEBFCDBF1092E9008091E80058
:1007A000FE0131969E01275F3F4F8F01E217F3074D
:1007B00021F08091F1008193F9CF82EF8093E800DE
:1007C000898187FF05C08091E80080FFFCCF03C0CE
:1007D0008EEF8093E8000E94740C8981982F9076A8
:1007E00091F52A812630D1F02CF4222349F02530CE
:1007F00061F034C02830B1F00CF12930B9F02EC0CE
:100800001092F1001092F10029C08091E80080FF61
:10081000FCCF8B8180688093E30020C0C8010E94D8
:100820003D071CC081E08093F10018C0837031F453
:100830000E94D0068B818093B80210C083E090E0C4
:100840000E94640C0BC08F8198850E94C70B2D817C
:100850003E81232B99F7C8010E94A2040E946F0CCD
:10086000892B21F081E28093EB0003C08EEF80930F
:10087000E80028960FB6F894DEBF0FBECDBFDF911B
:10088000CF91FF91EF91BF91AF919F918F917F9108
:100890006F915F914F913F912F911F910F910F9009
:1008A0000FBE0F901F9018951F920F920FB60F92C8
:1008B00011242F933F934F935F936F937F938F9365
:1008C0009F93AF93BF93CF93EF93FF93C091E100BA
:1008D0001092E100C3FF0AC042E360E080E00E94A2
:1008E000C6061092B80288E08093F000C2FF18C0DC
:1008F00083E00E94B00A82E08093E9000E94790CB4
:10090000C091F2000E947C0CCC2351F082E00E9446
:100910000C0B682F8DE393E00E94DE0CC150F4CFE6
:10092000FF91EF91CF91BF91AF919F918F917F9167
:100930006F915F914F913F912F910F900FBE0F904C
:100940001F901895CF93DF93EC010E94740C88815F
:10095000813209F03BC08981803241F467E070E068
:1009600080E091E0DF91CF910C944E0C823271F5D2
:100970008A81809305018091000190910101803B63
:10098000944051F58091050180FD12C087E797E7FB
:1009900090930108809300082BE088E190E00FB667
:1009A000F894A895809360000FBE2093600014C057
:1009B00088E10FB6F89480936000109260000FBE3B
:1009C000A895109201081092000806C084E090E0FB
:1009D000DF91CF910C94640CDF91CF910895DC01ED
:1009E00013968D919C911497029709F04AC0159621
:1009F0008D919C911697029709F443C04C9155270D
:100A000047FD5095652F752F415051094E305105C6
:100A100090F54A5A5F4FFA010C94F41084B580683F
:100A200084BD29C085B5806285BD25C080918000C8
:100A3000806803C0809180008062809380001BC02A
:100A40008091900080688093900015C08091C000D4
:100A500080688093C0008091C0008B7F8093C0002D
:100A60000AC08091C20088608093C2008091C20059
:100A70008B7F8093C20082E090E016969C938E93C9
:100A800015970895DC0113968D919C911497029708
:100A9000E9F515968D919C911697892BB9F14C919A
:100AA000552747FD5095652F752F415051094E3000
:100AB000510540F54C595F4FFA010C94F41084B580
:100AC0008F7784BD1FC085B58F7D85BD1BC080918C
:100AD00080008F7703C0809180008F7D809380009D
:100AE00011C0809190008F77809390000BC080910F
:100AF000C0008F778093C00005C08091C200877FBF
:100B00008093C20016961C921E9215970895EF923C
:100B1000FF920F931F93CF93DF93EC018B819C8106
:100B20000197029780F58D819E81892B61F58981DE
:100B3000880F990BFC01E255FE4F00811181FC01E9
:100B4000E056FE4FE080F18061110EC00E94790CEA
:100B5000F80190812A81209592239083F70190815A
:100B60002A812095922308C0613069F40E94790C93
:100B7000F80190812A81922B90830E947C0C81E065
:100B800090E09E838D83DF91CF911F910F91FF9015
:100B9000EF900895FC01838194810197029730F4CE
:100BA00085819681892B11F0168215820895CF9345
:100BB000DF93EC012B813C81C90101970297F8F486
:100BC0008D819E812230310539F48230910521F4E6
:100BD000CE010E94420506C0892B21F460E0CE01BF
:100BE0000E948705E981EE0FFF0BEE56FE4F019044
:100BF000F081E02D90818A81982381E009F080E0E6
:100C0000DF91CF910895FF920F931F93CF93DF93BE
:100C1000EC01F62E2B813C81C9010197029760F50A
:100C20008D819E812230310539F48230910521F485
:100C3000CE010E94420506C0892B21F461E0CE015D
:100C40000E948705E981EE0FFF0BE056FE4F008101
:100C500011810E94790C2A81F8019081F11003C062
:100C60002095922301C0922B9083DF91CF911F9109
:100C70000F91FF900C947C0CDF91CF911F910F91FD
:100C8000FF900895FC0183819481039769F5809119
:100C90007B00918193FB222720F930E045E0220F71
:100CA000331F4A95E1F78F7D822B80937B008181F2
:100CB0008770806480937C0080917A008064809348
:100CC0007A0080917A0086FDFCCF20917800809197
:100CD0007900992787FD9095982F8827332727FD3E
:100CE0003095822B932B089580E090E008951F9318
:100CF000CF93DF93EC01162F8B819C81029709F033
:100D000041C08D819E81009729F461E0CE010E944F
:100D1000870505C0019719F4CE010E94EF04888170
:100D2000992787FD9095A92FB92FFC013197EE30B7
:100D3000F10540F5EE58FF4F0C94F41017BD22C09A
:100D400018BD20C0612F772767FD709570938900CB
:100D50006093880017C0612F772767FD70957093A7
:100D60008B0060938A000EC0612F772767FD709516
:100D7000709399006093980005C01093CF0002C053
:100D80001093D200DF91CF911F9108958093E900D5
:100D900081E08093EB006093EC004093ED000895B8
:100DA000E9E4F1E081E091E026E33196843059F006
:100DB00034918093E9009093EB003093EC00209302
:100DC000ED008F5FF2CF8EE78093EA001092EA0089
:100DD00008950F931F93CF93DF93EC01062F862F77
:100DE000880F8E5F0E943C0C83E00E943C0C10E058
:100DF00010178CF4FE01E10FF11D17FDFA95849197
:100E00000E943C0C80E00E943C0C0E946F0C892BDD
:100E100011F41F5FEDCFDF91CF911F910F910895D6
:100E2000CF93DF93CDB7DEB729970FB6F894DEBF27
:100E30000FBECDBF29E0E8E2F2E0DE01119601909D
:100E40000D922A95E1F70E94C70B49E050E0BE01E0
:100E50006F5F7F4F80E00E94D20B42E450E066EE6D
:100E600071E080E00E94D20B29960FB6F894DEBFA5
:100E70000FBECDBFDF91CF910895CF93DF93EC01EB
:100E80002B818E819F81223021F4DF91CF910C94B0
:100E900010070E94C70B2B81213069F48E819F813E
:100EA000089711F4209343028091430281111CC0E2
:100EB000CAE1D1E01EC02330F1F48A818823B9F061
:100EC000823021F46CE088E391E005C0813039F490
:100ED0006BE08CE291E0DF91CF910C94E90683E026
:100EE00090E00E94640C07C0C8E0D1E002C0C5E4F5
:100EF000D1E0209731F483E090E00E94640CC0E0E0
:100F0000D0E00E946F0C892B59F4FE0144915527C3
:100F100047FD5095BE0180E8DF91CF910C94D20B34
:100F2000DF91CF9108951092B10281E08093AF02DA
:100F30001092AE0261E08EE391E00E94030661E050
:100F400085E491E00E940306E9EBF0E080818E7F6A
:100F5000808380818D7F808388E48093B80085E4DE
:100F60008093BC000895880F990B8093BA00089570
:100F700041320CF047C09091B1029111FCCF91E049
:100F80009093B1022093AF022FEF2093440210926E
:100F90008902240F209388029093B0029091B002AE
:100FA000282F220F330B922B9093B0028091AE0228
:100FB000813041F41092AE028091B0028093BB0068
:100FC00085EC01C085EE8093BC008091B102813038
:100FD000E1F380918902841714F44091890280E042
:100FE000841774F4282F332727FD3095FB01E20F77
:100FF000F31FD901A657BD4F9C9190838F5FF0CF0F
:10100000842F089580E008950F9341320CF045C07D
:101010009091B1029111FCCF92E09093B1020093B4
:10102000AF029FEF9093440210928902409388028E
:10103000FB016AE872E0DB019A2F961B94171CF4FF
:1010400091919D93F9CF1092B0023091B002880F28
:10105000990B382B3093B0028091AE02813041F46D
:101060001092AE028091B0028093BB0085EC01C06B
:1010700085EE8093BC00222321F08091B102823062
:10108000E1F38091440280914402803241F08091EA
:101090004402803331F483E005C081E003C082E084
:1010A00001C084E00F91089561329CF42091B10257
:1010B000243089F460936602FC0188E692E0DC014A
:1010C0002A2F281B26171CF421912D93F9CF80E09D
:1010D000089581E0089582E008959093AB02809393
:1010E000AA0208959093AD028093AC0208958823DC
:1010F00011F085EC01C085E88093BC00089585ED72
:101100008093BC008091BC0084FDFCCF1092B102A2
:10111000089585EC8093BC001092B10208951F924F
:101120000F920FB60F9211242F933F934F935F931B
:101130006F937F938F939F93AF93BF93EF93FF939F
:101140008091B900992787FD9095887F99278036EF
:10115000910509F4BAC0BCF58832910509F471C053
:10116000ACF48031910509F469C03CF4009709F4AE
:1011700019C1089709F462C019C18831910509F4B1
:1011800060C0809709F012C180E272C0803491057E
:1011900009F47FC05CF48033910509F468C0C897F6
:1011A00009F004C188E380934402C5C080359105ED
:1011B00009F461C08835910509F470C0883491053F
:1011C00009F0F4C0F1C08839910509F4E1C0DCF4FC
:1011D0008837910509F479C04CF48836910509F4F3
:1011E00074C08037910509F470C0E0C0883891055B
:1011F00009F4CEC08039910509F46DC0803891059D
:1012000009F0D4C068C0803B910509F497C04CF444
:10121000803A910509F473C0883A910509F48EC0AB
:10122000C5C0803C910509F4B7C0883C910509F41C
:10123000B3C0883B910509F496C0B8C08091B00254
:1012400012C090918902809188029817ACF5E091C4
:10125000890281E08E0F80938902FF27E7FDF095D8
:10126000E657FD4F80818093BB0085EC92C080E300
:101270008093440299C0E091890281E08E0F8093AF
:1012800089028091BB00FF27E7FDF095E657FD4FEF
:101290008083909189028091880277C0E0918902D1
:1012A00081E08E0F809389028091BB00FF27E7FDCC
:1012B000F095E657FD4F80838091AF02811174C095
:1012C00081E08093AE0284EA68C083E08093B1023B
:1012D00010924502CACF8091450280320CF058C06E
:1012E000E091450281E08E0F809345028091BB0022
:1012F000FF27E7FDF095EA5BFD4F8083B6CF809135
:101300004502803244F4E0914502FF27E7FDF09565
:10131000EA5BFD4F10820E947F08609145027727AB
:1013200067FD7095E091AA02F091AB0286E492E02D
:101330000995109245020E94890838C084E0809384
:10134000B1021092670210926602E091AC02F09135
:10135000AD02099580916602811105C081E08093FC
:10136000660210926802E091670281E08E0F80931E
:101370006702FF27E7FDF095E859FD4F80818093D4
:10138000BB00909167028091660298170CF46DCFB4
:1013900085E88093BC000AC085EC8093BC00109265
:1013A000B10204C0109244020E947F08FF91EF91A5
:1013B000BF91AF919F918F917F916F915F914F916D
:1013C0003F912F910F900FBE0F901F901895109284
:1013D000CD0087E68093CC00E8ECF0E080818D7F43
:1013E000808388E18093C900EAECF0E08081806C22
:1013F00080831092BA021092FC021092B9021092ED
:10140000FB02089589EB92E00C94200D89EB92E0A9
:101410000E94200D882321F089EB92E00C940C0DA2
:1014200080E00895682F8BEF92E00E94DE0CE9ECDB
:10143000F0E0808180628083E8ECF0E0808180646D
:1014400080830895AF92BF92CF92DF92EF92FF9286
:101450000F931F93CF93DF93CDB7DEB72E970FB6C1
:10146000F894DEBF0FBECDBF2E960FB6F894DEBF48
:101470000FBECDBFDF91CF911F910F91FF90EF90E5
:10148000DF90CF90BF90AF900C94120A1F920F92F2
:101490000FB60F9211242F933F934F935F936F9347
:1014A0007F938F939F93AF93BF93EF93FF938BEFB4
:1014B00092E00E94200D811106C08091C9008F7DAD
:1014C0008093C90006C08BEF92E00E940C0D8093C0
:1014D000CE00FF91EF91BF91AF919F918F917F913E
:1014E0006F915F914F913F912F910F900FBE0F9091
:1014F0001F9018951F920F920FB60F9211242F93E1
:101500003F934F935F936F937F938F939F93AF938B
:10151000BF93EF93FF938091C80082FD06C0609156
:10152000CE0089EB92E00E94DE0CFF91EF91BF911B
:10153000AF919F918F917F916F915F914F913F916B
:101540002F910F900FBE0F901F9018958091E8007B
:101550008570E1F39091E80081E092FD80E00895CC
:101560008093E9008091F20018161CF48AE38093BE
:10157000E8000895CF938093E9000E94790C909140
:10158000E800C091F2000E947C0C80E48C1BCF919B
:101590000895FF920F931F93CF93DF93F82E8B0143
:1015A000EA010E94740C8091B802811107C082E0A8
:1015B00090E00E94640C80E090E028C0F092E90086
:1015C0000E94790C2091F200332727FD30952C17CB
:1015D0003D072CF4C091F200DD27C7FDD095F8013E
:1015E00098012C0F3D1FE217F30721F09091F100B5
:1015F0009193F9CF209739F09091F200911103C0A7
:101600009BE69093E8000E947C0CCE01DF91CF9185
:101610001F910F91FF900895CF93DF931F92CDB745
:10162000DEB7198241E050E0BE016F5F7F4F0E943C
:10163000C90A89818D3009F48AE00F90DF91CF913A
:1016400008958F929F92AF92BF92CF92DF92EF92C6
:10165000FF920F931F93CF93DF93C82EEB017A0174
:101660000E94740C8091B802882361F087018AEF90
:10167000B82E8C2D8072A82E9C2D9074992E9AE3F2
:10168000892E19C081E090E00E94640C80E090E017
:101690004EC08C2D0E94BA0AD82E811110C0BA9467
:1016A00089F321E030E040E050E060E070E080E06D
:1016B00090E00E940402101611065CF337C0282F38
:1016C000332727FD3095021713070CF4D02E0D1980
:1016D0001109D7FC1395C092E9000E94790CAA2049
:1016E00039F0DA949FEFD916B1F01092F100F9CFEA
:1016F000FE019D2DC7FE07C0915058F02491209304
:10170000F1003196F9CF915020F021912093F10012
:10171000FACFCD0DD11D9091E800E114F10419F438
:1017200091108092E8000E947C0CC5CFC701DF9128
:10173000CF911F910F91FF90EF90DF90CF90BF90CE
:10174000AF909F908F900895CF93DF931F92CDB766
:10175000DEB78983809105011816ACF441E050E0B2
:10176000BE016F5F7F4F83E00E94210B89818A3029
:1017700051F48DE0898341E050E0BE016F5F7F4FFF
:1017800083E00E94210B0F90DF91CF91089510927A
:10179000E9001092B5021092B4029093B7028093C0
:1017A000B6020895AF92BF92CF92DF92EF92FF926E
:1017B0000F931F93CF93DF9300D0CDB7DEB7D82E12
:1017C000F42EE52E69837A830E94740C1092E9004E
:1017D0000F2D1E2D6981A62E7A81B72E2EEFC22ED7
:1017E00001151105D1F16091B4027091B5022091FB
:1017F000B6023091B702621773077CF50E94A60A01
:10180000811107C082E090E00E94640C80E090E0CB
:1018100026C0F501D7FE02C0849101C0808180936B
:10182000F1002091B4023091B5022F5F3F4F2F732A
:101830003327232B11F4C092E8002091B402309199
:10184000B5022F5F3F4F3093B5022093B402015091
:101850001109FFEFAF1ABF0AC3CF8F2D9E2D0F9036
:101860000F90DF91CF911F910F91FF90EF90DF903C
:10187000CF90BF90AF900895CF93DF931F92CDB7D5
:10188000DEB7898341E050E0BE016F5F7F4F80E0AB
:101890000E94D20B0F90DF91CF9108951092E90032
:1018A0002091E80022FFFCCFFC01680F791FE617AA
:1018B000F70721F08091F1008193F9CF8BEF8093AE
:1018C000E8008FEF9FEF08952091B2023091B302AC
:1018D000232B21F49093B3028093B2020895809158
:1018E000B2029091B30208951092B3021092B20224
:1018F00008958FB7F89408958FBF0895789484B5AC
:10190000826084BD84B5816084BD85B5826085BDFB
:1019100085B5816085BDEEE6F0E0808181608083E1
:10192000E1E8F0E0108280818260808380818160C4
:101930008083E0E8F0E0808181608083E1EBF0E08B
:10194000808184608083E0EBF0E08081816080832F
:10195000E1E9F0E080818260808380818160808322
:10196000E0E9F0E0808181608083E1ECF0E080815B
:1019700084608083808182608083808181608083B5
:10198000E3ECF0E0808181608083E0ECF0E0808136
:1019900082608083E2ECF0E0808181608083EAE70E
:1019A000F0E0808184608083808182608083808198
:1019B000816080838081806880830895FC018081BC
:1019C0008F5F803411F0808301C010828081E80F26
:1019D000F11D87FDFA9562830895EF92FF920F93B0
:1019E0001F93CF93DF931F92CDB7DEB78C017B019E
:1019F000460F4E1549F0F70161917F01C8014983F7
:101A00000E94DE0C4981F5CF0F90DF91CF911F919D
:101A10000F91FF90EF900895FC01818190818917CB
:101A200069F08F5F803411F0818301C01182818160
:101A3000E80FF11D87FDFA958281089580E00895F1
:101A4000FC0181E021819081291301C080E008958B
:101A5000A3E1B0E0EEE2FDE00C94BD107C011B01BF
:101A60006A01FC0117821682838181FF66C3BE0171
:101A70006F5F7F4F4B01F7019381F10193FD8591DA
:101A800093FF81911F01882309F453C3853239F4F0
:101A900093FD859193FF81911F01853239F4B70140
:101AA00090E00E942B1456016501E5CF10E0512C07
:101AB00020E02032A0F48B3269F030F4803259F00B
:101AC000833269F420612CC08D3239F0803339F4CF
:101AD000216026C02260246023C0286021C027FD29
:101AE00027C030ED380F3A3078F426FF06C0FAE010
:101AF0001F9F300D1124132F13C06AE0569E300D26
:101B00001124532E20620CC08E3221F426FD11C305
:101B1000206406C08C3611F4206802C0883641F477
:101B2000F10193FD859193FF81911F018111C1CF37
:101B30009BEB980F933018F42061805E06C09BE900
:101B4000980F933008F0AAC12F7E26FF16E02F735E
:101B5000722E853621F4F22FF0647F2E08C086366F
:101B600021F4622F6068762E02C01111115077FEA9
:101B700007C01C3348F444244394410E27E00BC0B3
:101B8000183030F4212F06C027E04CE3442E03C068
:101B900027E017E0412C560174E0A70EB11CF601B6
:101BA0006081718182819381042DA4010E943D1383
:101BB0006C01098100FF02C003FF06C071FC07C071
:101BC00072FC08C0612C08C03DE2632E05C02BE208
:101BD000622E02C090E2692E802F8C7099F16620EF
:101BE00011F084E001C083E0851510F0512C0BC08A
:101BF000581A73FC08C0B70180E290E00E942B14D1
:101C00005A94C9F7F3CF662029F0B701862D90E0EA
:101C10000E942B1403FD03C004E011E002C000E0A9
:101C200011E0F72DF0717F2EF8018491882309F4DB
:101C300076C271108052B70190E00E942B140F5FA2
:101C40001F4FF2CF77FE0FC04C0C04FF04C08A81F7
:101C5000813309F44A94141474F5F8E0F41578F516
:101C600088E0482E2CC076FC2AC0812F90E08C158D
:101C70009D059CF06CEFC6166FEFD60674F0772DBD
:101C80007068772E0AC0E2E0F0E0EC0FFD1FE10F74
:101C9000F11D8081803319F411501111F4CF77FEBA
:101CA0000EC044244394410E812F90E0C816D906FB
:101CB0002CF41C1904C04424439401C010E077FEA6
:101CC00007C01C141D043CF496012F5F3F4F05C054
:101CD00025E030E002C021E030E0662011F02F5F07
:101CE0003F4F112331F0412F50E04F5F5F4F240FE2
:101CF000351F452D50E02417350714F4521A01C042
:101D0000512C872D897049F4552039F0B70180E2B4
:101D100090E00E942B145A94F7CF662029F0B70167
:101D2000862D90E00E942B1473FC09C0552039F0D9
:101D3000B70180E390E00E942B145A94F7CF77FE0E
:101D40005FC09C2D8D2DD7FE02C090E080E0692EF3
:101D5000782E40E050E0C601841991099D878C8758
:101D6000960126193709280D391D812F90E0EE279D
:101D7000FF27E81BF90BFF87EE87FFEF6F167F0643
:101D800069F4B7018EE290E02B8B3A8B488B598B2C
:101D90000E942B14598948893A892B89C614D70483
:101DA00054F06C857D85661577052CF4F901E40FF8
:101DB000F51F818101C080E371E0671A71084F5FF0
:101DC0005F4FEE85FF856E167F066CF0B70190E0E1
:101DD0002B8B3A8B488B598B0E942B142B893A8979
:101DE00048895989CACF6C147D0439F49A81963395
:101DF00018F4953311F404FF81E3B70190E04BC070
:101E00008A81813309F00F7EB70190E00E942B1484
:101E1000111105C074FE18C085E490E017C0B70129
:101E20008EE290E00E942B1482E066246394680E98
:101E3000F401E80FF11D8081B70190E00E942B149E
:101E4000115041F3862DF1CF85E690E0B7010E9455
:101E50002B14D7FC05C0C114D10439F404FF05C00C
:101E6000D194C194D1088DE201C08BE2B70190E01A
:101E70000E942B1480E36AE0C616D1042CF08F5F19
:101E8000FAE0CF1AD108F7CFB70190E00E942B14E7
:101E9000B701C601C0960E942B1441C1833631F0B0
:101EA000833779F0833509F058C021C0560172E0BC
:101EB000A70EB11CF6018081898301E010E0640166
:101EC00014C05601F2E0AF0EB11CF601C080D18003
:101ED00026FF03C0612F70E002C06FEF7FEFC601E5
:101EE0002B8B0E9420148C012B892F7715C0560153
:101EF000F2E0AF0EB11CF601C080D18026FF03C016
:101F0000612F70E002C06FEF7FEFC6012B8B0E9444
:101F100015148C012B892068722E23FD1AC0852D83
:101F200090E008171907A8F4B70180E290E00E943A
:101F30002B145A94F4CFF60177FC859177FE8191AA
:101F40006F01B70190E00E942B1451105A94015078
:101F500011090115110579F7E2C0843611F08936AF
:101F600051F5560127FF09C0F4E0AF0EB11CF60190
:101F700060817181828193810AC0F2E0AF0EB11C51
:101F8000F60160817181882777FD8095982F022F57
:101F90000F7697FF08C090958095709561957F4F5B
:101FA0008F4F9F4F00682AE030E0A4010E94641424
:101FB000C82EC8183EC0022F853721F40F7E2AE0B4
:101FC00030E01DC0097F8F3691F018F4883559F044
:101FD000B0C0803719F0883711F0ABC0006104FF42
:101FE00009C0046007C024FF08C0066006C028E0DE
:101FF00030E005C020E130E002C020E132E05601CF
:1020000007FF09C0F4E0AF0EB11CF60160817181D9
:102010008281938108C0F2E0AF0EB11CF6016081AD
:10202000718180E090E0A4010E946414C82EC81859
:102030000F7706FF0BC0202F2E7FC11650F404FF30
:102040000AC002FD08C0202F2E7E05C0DC2C202FE8
:1020500003C0DC2C01C0D12E24FF0DC0FE01EC0D0D
:10206000F11D8081803311F4297E09C022FF06C052
:10207000D394D39404C0822F867809F0D39423FD9F
:1020800013C020FF06C01C2DD51418F4150D1D1902
:10209000D52CD51468F4B70180E290E02B8B0E9418
:1020A0002B14D3942B89F5CFD51410F45D1801C0EF
:1020B000512C24FF12C0B70180E390E02B8B0E94CB
:1020C0002B142B8922FF17C021FF03C088E590E065
:1020D00002C088E790E0B7010CC0822F867859F0E3
:1020E00021FD02C080E201C08BE227FD8DE2B70135
:1020F00090E00E942B14C11638F4B70180E390E001
:102100000E942B141150F7CFCA94F401EC0DF11D6D
:102110008081B70190E00E942B14C110F5CF5520AB
:1021200009F4C2CCB70180E290E00E942B145A94CB
:10213000F6CFF7018681978102C08FEF9FEF6396FC
:10214000E2E10C94D9100E947E0C0E9492038AEC6A
:1021500091E090938203809381038DE393E00E944A
:10216000200D8823D1F38DE393E00E940C0D992775
:1021700087FD90950E945D14F0CF2F923F924F9271
:102180005F926F927F928F929F92AF92BF92CF9207
:10219000DF92EF92FF920F931F93CF93DF93CDB710
:1021A000DEB7CA1BDB0B0FB6F894DEBF0FBECDBF88
:1021B00009942A88398848885F846E847D848C8459
:1021C0009B84AA84B984C884DF80EE80FD800C8162
:1021D0001B81AA81B981CE0FD11D0FB6F894DEBF45
:1021E0000FBECDBFED010895EE0FFF1F0590F491D6
:1021F000E02D09940F93083090F0982F872F762FB9
:10220000652F542F432F322F22270850F4CF220F4F
:10221000331F441F551F661F771F881F991F0A957C
:10222000B2F70F9108952A0D3B1D4C1D5D1D6E1DCB
:102230007F1D801F911F08950024A7FD00942A0F81
:10224000301D401D501D601D701D801D901D089586
:102250000024A7FD00942A173005400550056005AD
:1022600070058005900508955058BB27AA270ED009
:1022700067C158D130F05DD120F031F49F3F11F4A7
:102280001EF43DC10EF4E095E7FB33C1E92F69D19F
:1022900080F3BA17620773078407950718F071F483
:1022A0009EF581C10EF4E0950B2EBA2FA02D0B01E7
:1022B000B90190010C01CA01A0011124FF27591B8B
:1022C00099F0593F50F4503E68F11A16F040A22F91
:1022D000232F342F4427585FF3CF46953795279502
:1022E000A795F0405395C9F77EF41F16BA0B620B01
:1022F000730B840BBAF09150A1F0FF0FBB1F661F48
:10230000771F881FC2F70EC0BA0F621F731F841F8A
:1023100048F4879577956795B795F7959E3F08F0B0
:10232000B3CF9395880F08F09927EE0F979587956F
:1023300008950CD005C1FDD040F0F4D030F021F468
:102340005F3F19F0D6C051112FC1D9C00AD198F3FF
:102350009923C9F35523B1F3951B550BBB27AA2726
:1023600062177307840738F09F5F5F4F220F331F98
:10237000441FAA1FA9F333D00E2E3AF0E0E830D064
:1023800091505040E695001CCAF729D0FE2F27D067
:10239000660F771F881FBB1F261737074807AB0735
:1023A000B0E809F0BB0B802DBF01FF2793585F4FAA
:1023B0002AF09E3F510568F09CC0F6C05F3FECF3E9
:1023C000983EDCF3869577956795B795F7959F5F6F
:1023D000C9F7880F911D9695879597F90895E1E0C3
:1023E000660F771F881FBB1F621773078407BA0722
:1023F00020F0621B730B840BBA0BEE1F88F7E0957D
:102400000895BEE304D008F490E80895BFE32227BE
:102410003327A901AED058F19F5740F1B91738F1D1
:10242000BFE3B91B9927B8503AF4660F771F881F8E
:10243000991FB395D2F316C0B8504AF0232F342F0A
:10244000452F562F672F782F8827B850BAF7B85FD7
:1024500049F08695779567955795479537952795D0
:10246000BA95B9F70EF44ED088940895889460E038
:1024700070E0CB010895E894F92F96EBFF2381F0EB
:10248000121613061406440B9395F69587957795C7
:10249000679557954040FF23B9F71BC099270895CA
:1024A000882351F49850D2F7872B762F652F542F1D
:1024B000432F322F20E0B1F3121613061406440BFB
:1024C00088233AF09A95440F551F661F771F881F7F
:1024D000CAF755234AF4440F551F11F460FF04C096
:1024E0006F5F7F4F8F4F9F4F880F9695879597F916
:1024F000089597F99F6780E870E060E008959FEF86
:1025000080EC0895909580957095609550954095D4
:10251000309521953F4F4F4F5F4F6F4F7F4F8F4FFC
:102520009F4F089500240A941616170618060906E8
:10253000089500240A941216130614060506089539
:10254000092E0394000C11F4882352F0BB0F40F4C1
:10255000BF2B11F460FF04C06F5F7F4F8F4F9F4F01
:10256000089557FD9058440F551F59F05F3F71F083
:102570004795880F97FB991F61F09F3F79F08795EA
:102580000895121613061406551FF2CF4695F1DF73
:1025900008C0161617061806991FF1CF8695710503
:1025A000610508940895E894BB2766277727CB0137
:1025B00097F908950BD0C4CFB5DF28F0BADF18F033
:1025C000952309F096CF9BCF1124EECFCADFA0F35D
:1025D000959FD1F3950F50E0551F629FF001729FB8
:1025E000BB27F00DB11D639FAA27F00DB11DAA1FD7
:1025F000649F6627B00DA11D661F829F2227B00D24
:10260000A11D621F739FB00DA11D621F839FA00DAE
:10261000611D221F749F3327A00D611D231F849FFE
:10262000600D211D822F762F6A2F11249F57504055
:102630008AF0E1F088234AF0EE0FFF1FBB1F661FF0
:10264000771F881F91505040A9F79E3F510570F0A9
:1026500050CFAACF5F3FECF3983EDCF38695779599
:102660006795B795F795E7959F5FC1F7FE2B880FA4
:10267000911D9695879597F90895283008F027E0E1
:102680003327DA01990F311D87FD916000966105AE
:10269000710539F432602E5F3D9330E32A95E1F7FE
:1026A00008959F3F30F080387105610509F03C5F67
:1026B0003C5F3D93913008F08068911DDF93CF938C
:1026C0001F930F93FF92EF92192F987F9695E92F02
:1026D00096959695E90FFF27E955FE4F99273327E1
:1026E000EE24FF24A701E70105900894079428F43D
:1026F000360FE71EF81E491F511D660F771F881FF2
:10270000991F0694A1F70590079428F4E70EF81E88
:10271000491F561FC11D770F881F991F661F0694FA
:10272000A1F70590079428F4F80E491F561FC71FFC
:10273000D11D880F991F661F771F0694A1F705907A
:10274000079420F4490F561FC71FD81F990F661F03
:10275000771F881F0694A9F784911095177041F090
:10276000D695C79557954795F794E7941A95C1F76D
:10277000EDE4F1E06894159015913591659195918E
:1027800005907FE27395E118F10A430B560BC90BD4
:10279000D009C0F7E10CF11E431F561FC91FD01D01
:1027A0007EF4703311F48A95E6CFE894015030F04E
:1027B000080F0AF40027021708F4202F2395022F90
:1027C0007A3328F079E37D932A95E9F710C07D9359
:1027D0002A9589F6069497956795379517951794D6
:1027E000E118F10A430B560BC90BD00998F0239559
:1027F0007E9173957A3308F070E37C932013B8F7D9
:102800007E9170617D9330F0839571E37D9370E3E9
:102810002A95E1F71124EF90FF900F911F91CF912E
:10282000DF91992787FD90950895FC0105906150EF
:1028300070400110D8F7809590958E0F9F1F0895D6
:10284000FC016150704001900110D8F7809590957F
:102850008E0F9F1F08950F931F93CF93DF93182F11
:10286000092FEB018B8181FD03C08FEF9FEF20C00B
:1028700082FF10C04E815F812C813D81421753073A
:102880007CF4E881F9819F012F5F3F4F39832883D2
:10289000108306C0E885F985812F0995892B29F7D2
:1028A0002E813F812F5F3F4F3F832E83812F902FBB
:1028B000DF91CF911F910F910895609181037091E5
:1028C00082030E942B140895FA01AA27283051F19F
:1028D000203181F1E8946F936E7F6E5F7F4F8F4F51
:1028E0009F4FAF4FB1E03ED0B4E03CD0670F781FB0
:1028F000891F9A1FA11D680F791F8A1F911DA11D95
:102900006A0F711D811D911DA11D20D009F46894CD
:102910003F912AE0269F11243019305D3193DEF675
:10292000CF010895462F4770405D4193B3E00FD02B
:10293000C9F7F6CF462F4F70405D4A3318F0495D16
:1029400031FD4052419302D0A9F7EACFB4E0A695F9
:102950009795879577956795BA95C9F7009761051B
:10296000710508959B01AC010A2E06945795479571
:1029700037952795BA95C9F7620F731F841F951F66
:08298000A01D0895F894FFCF9B
:1029880000E100000000000700030000000006004E
:10299800030000000005000300000000040003001D
:1029A8000000000100030000000000000300000018
:1029B80000040401000000000408010000000004F5
:1029C80002010000000204010200000000041001DE
:1029D800000000080340020000000E04800200000E
:1029E8000000054001000000000210010000000383
:1029F80002200200000004024002000000010280E0
:102A080002000000000440010000000B03800200E7
:102A18000000000000002300260029002C002F00E1
:102A280000000000250028002B002E0031000000C7
:102A38000000240027002A002D00300000000002BA
:102A480000000000220A0000000000000002000050
:102A58000000A40B000000000000000100000000BE
:102A68000C0B00000000080B000202020100090420
:102A780000000102020000052400100105240101E4
:102A8800010424020605240600010705810310003D
:102A98004009040100020A00000007050202400084
:102AA800000705830240000009024B000201008074
:022AB800FA0022
:00000001FF
